S02B00002F55736572732F61706E6167792F53696D706C696369747953747564696F2F76365F776F726B737036
S3150800600008120020495403088DEE09085597000820
S3150800601013450B087D97000891970008A597000877
S315080060208DEE09088DEE09088DEE0908C1BB0C082E
S31508006030B99700083C2F0E0865BB0C0885F90C08B3
S31508006040C15003088DEE09088DEE09088DEE090882
S315080060508DEE09088DEE09088DEE09088DEE090802
S315080060608DEE09088DEE09088DEE0908719B00086A
S315080060708DEE09088DEE09088DEE09088DEE0908E2
S315080060808DEE09088DEE09088DEE09088DEE0908D2
S315080060908DEE0908D12E05088DEE09088DEE090842
S315080060A08DEE0908B92B0508992B05088DEE090808
S315080060B08DEE09081DC50708F1CD0708A5B10C081E
S315080060C0A1B10C0865C50708BBB10C08A9B10C0835
S315080060D0C1CD0708ADB10C0831CE070899CE07081F
S315080060E08DEE09088DEE0908B99800088DEE0908A5
S315080060F03F3A0B088DEE09088DEE09088DEE090862
S315080061008DEE09088DEE09088DEE09088DEE090851
S315080061108DEE09088DEE09088DEE09088DEE090841
S315080061208DEE09088DEE09088DEE09088DEE090831
S315080061308DEE09088DEE09088DEE09088DEE090821
S315080061408DEE0908DD0906088DEE090897090D0880
S315080061504DAF07088DEE090885B10C088BB10C0800
S315080061608DEE09088DEE09088DEE09088DEE0908F1
S31508006180F0B5114A114C124E00F00105E3695F079C
S3150800619013D40DB9334213D103EA00078F4207D14E
S315080061A00B4A1A40002A0CBF00206FF00100F0BD10
S315080061B0013AEBD16FF00200F9E74FF0FF30F6E74E
S315080061C06FF00100F3E700BF8096980000000350C7
S315080061D00200010070B50B4BD96911F480310DD15D
S315080061E001244FF48072084E084DF46020462C6452
S315080061F01A61FFF7C5FF3464EC6070BD6FF00100EB
S31508006200FBE700BF000003500010035000200350B6
S315080062104FF4803238B50E4B0E4C9A66E56941F656
S31508006220713315400122E3630B4B0021DA60022328
S31508006230606121202361FFF7A3FF10B92120FFF732
S315080062409FFF0122054BDA600DB10023E36338BDD9
S315080062500090005000000350001003500020035027
S3150800626070B5134C6061E3695B071ED40E4656F899
S31508006270043B8D18A361AE420BD1042300212120D3
S315080062802361FFF77DFF58B9BDE870402120FFF76D
S3150800629077BF08210846FFF773FF10B1042323616F
S315080062A070BD56F8043BA361E5E74FF0FF30F7E70A
S315080062B0000003502DE9F84315464FF48032184B79
S315080062C089469A6603F51C33DF690646174041F688
S315080062D07132DA63012203F58053DFF84C80DA6005
S315080062E055B9284601220F4BDA601FB10022A3F5E3
S315080062F00053DA63BDE8F88306F5005404EA080497
S31508006300A41BAC4228BF2C46494622463046FFF716
S31508006310A7FF0028E6D12644A1442D1BE0E700BFCD
S31508006320009000500020035000E0FFFF000000002E
S31508006330000000000000000000000000000000004F
S31508006340013800D0FCE770472DE9F0472DED028BA8
S3150800635081460069A0B003688A46DB699847044607
S3150800636020B120B0BDEC028BBDE8F08706469FED54
S31508006370308B8DED048B8DED068BD9F810008DF8DA
S3150800638028608DF830608DF838608DF840608DF89B
S3150800639050608DF860608DF87060ADF808608DF813
S315080063A02060036802AA1B6AE1B2984748BBD04638
S315080063B058F8045B4146284679F02BFC08B90134A5
S315080063C0D7E795F8463029687BB14FF480720023E9
S315080063D0096C02A8B6F0C4FD07460146424628469F
S315080063E079F030FC002FEAD00BE02B6C05F128027F
S315080063F001A879F05CFB014648B14246284679F087
S3150800640021FCD9F8100003685B6A9847A9E7296850
S315080064100222096C002302A8B6F0A2FD0146002854
S31508006420EBD1296801A879F07AFBD5E7AFF30080AC
S3150800643000000000000000002DE9F04F2DED028B52
S315080064401D4613690646052BD5B00BD8013B01221C
S315080064500024042B23D8DFE813F04100290130017A
S315080064603F0152014FF6FC72934212D04FF6FD726D
S3150800647093424FF0010340F0448102200021CDE908
S315080064803E0185F8443028463EA97AF0BCF83060CB
S3150800649086E000230022CDE93E230123F1E7CB69FC
S315080064A0284685F844202C9379F047FB0028EED13E
S315080064B03FA83E958EF0B5FF3EA92CA87CF08BFB35
S315080064C00446284679F07EFB2046002CDFD14FF69D
S315080064D0FF7385F84C40A5F84A30D8E7D1F81C80F8
S315080064E0284685F8442079F028FB0446002856D12A
S315080064F013A812958EF095FF41460AA87BF037FA45
S3150800650005232246414600930EA87CF0C9FA274681
S315080065109FED7F8BDFF800A20EA90AA87CF0D7FAB8
S31508006520044648B9284679F04DFB4FF6FF7385F8BF
S315080065304C40A5F84A3032E00AA87BF0E8F98DED20
S31508006540228B8DED248B90F88190CDE92677CDE9C5
S315080065501E77ADF880708DF8A0708DF8AC90D0E9F4
S315080065600023CDE92423B0F8823000F16004ADF8A9
S315080065708030D0E9022320212046CDE92223B8F035
S315080065802AFB4946CDE926402CAA4046CDF8B0A0BC
S3150800659088F0ABFA044658B1284679F013FB346004
S315080065A000233371304655B0BDEC028BBDE8F08F41
S315080065B02DAB1E9341230DF1080B1F933EABCBF871
S315080065C0003055235A4649464046CBF8043088F0F1
S315080065D01BFC04460028DFD1DBF80430B3B19BE886
S315080065E0030001238DF8103005AB83E8030004A9E6
S315080065F007A87CF0E3FA9DF81C308DF8A0302BB183
S3150800660029AB08AA92E8030083E803009DF8AC309A
S31508006610002B49D0DDF8489099F8452099F808B03C
S315080066200AB19B451AD1484613A979F0F2FAA8B1DE
S3150800663099F84630D9F80010A3B1096C4FF4807266
S315080066400023CDF800B01EA8B7F00FF8044601469F
S3150800665013AA484679F0F6FA002C9DD10AA87CF0D0
S315080066600BFA59E7D9F8403009F1280207A879F05A
S315080066701EFA044628B12146484613AA79F0E2FADA
S315080066808AE7D9F800300222196C1EA80023CDF833
S3150800669000B0B6F0EAFF04460028ECD1D9F800109D
S315080066A007A879F03CFAD1E7712475E7052000219F
S315080066B085F84420CDE93E01E5E6CB6993F88233B7
S315080066C0CDE93E340123284685F844303EA979F0C1
S315080066D09AFF3471306065E7CB69284685F844200F
S315080066E02C9379F02AFA00287FF4D1AE3FA83E957C
S315080066F08EF097FE3EA92CA87CF071FBE0E62B7A7B
S31508006700DEE78622C0E900234CE700BFAFF300802E
S31508006710000000000000000064E80D08000000000A
S315080067202DE9F04F2DED028B083085B00E469146C7
S31508006730DDF8508090F0E4F90446002800F0A380C4
S315080067406F4600259FED548B4FF0010B41F2A45A7A
S3150800675010AB0FCB87E80F00514BC4E902552360F5
S31508006760C4E90455C4E906552C3363604D4B04F15E
S31508006770500C0FCB84ED108BC4E90E5584F82050CD
S3150800678084F8305084F848508CE80F00464B84F85B
S3150800679060B0A4F862A06566236704F18403C4E9BF
S315080067A02133424B1022C4F89830294684ED1A8BBF
S315080067B0C4E91D55C4E9275584F87C50C4F88C50A3
S315080067C0C4F8A45004F1A800B8F053FA84ED308B4D
S315080067D084F8B8B0A4F8BAA0C4F8BC5004F1C8004C
S315080067E090F0F6FF4AF6C873C82284ED388B84ED1C
S315080067F03A8BC4E93C2304F58673C4E94055C4E9D9
S315080068004333A4F8D45084F8D650A4F8D85084F862
S315080068100851C4F814513368A3607368E360B36819
S315080068202361F36863613369A3617369E361337E46
S3150800683084F8203033B104F1240306F11C0207CA98
S3150800684083E8070096F8283084F830300BB1F36AED
S315080068506363304679F042FBA8B9B9F1000F12D04C
S31508006860B8F1000F0FD003CF3B78C4F8389084F8FE
S315080068704830012384F80031231D20646164C4F87C
S315080068809080C4F8A430204605B0BDEC028BBDE864
S31508006890F08F00BFAFF3008000000000000000008A
S315080068A000690D08704101208C1B0E08F0680D0860
S315080068B02DE9F04F2DED028B00240025CBB099462B
S315080068C0CDE92E450023CDE93045CDE934454FF6CF
S315080068D0FF74DFF898A2064688461746CDE90C33BA
S315080068E08DF8C8303393CDF8D8A04894A2B305469E
S315080068F000F53474A54206D10B2420464BB0BDECF6
S31508006900028BBDE8F08F284679F016FC08B1903561
S31508006910F0E79FED8F8BBDF85C318DF8C880ADF838
S3150800692020318D4B4FF4C8710E93002309A8CDE989
S3150800693009330F93CDF870A00B937CF035F9099CB9
S3150800694014BB0B240BA879F09DF90AA879F09AF9DB
S3150800695009A879F097F9D0E788F057F8044608B9F6
S31508006960AC24CAE706F53475284677F029FFB4F84B
S3150800697082308DF8C880ADF8203121460CA894EDF8
S31508006980028B87F0AFFFCCE74FF4C8710AA87CF0FA
S315080069900BF9DDF828A0BAF1000FD2D04FF4C87170
S315080069A00BA87CF001F90B9A002ACAD04FF4C873D9
S315080069B04146CDE91332304610AA1094CDE9113A72
S315080069C0159388F082F804460028BBD14146304624
S315080069D012AA88F05CF804460028B3D1414630462E
S315080069E014AA88F031F804460028ABD110A916A8D5
S315080069F07CF0D0F812A918A87CF0CCF814A91AA82B
S31508006A007CF0C8F836AB079330AB05930DF1B80A9E
S31508006A1034ABCDE903A30DF1700B0EAB8DED008BF6
S31508006A20CDF818B002931AAA18A916A818F02AF9C8
S31508006A300446002886D10BA879F024F90AA879F02B
S31508006A4021F909A879F01EF9B9F1000F13D1D6F882
S31508006A50640300285ED003689B6898470346D6F807
S31508006A606403002B4ED003685A4641465B69984733
S31508006A70044688B141E7D9F8003048465B6998472B
S31508006A80594688F0EFFA08B9C52436E79DF8583113
S31508006A90CDF8CC908DF822319DF860315146B3FA85
S31508006AA083F328465B098DF8233188F082FA044679
S31508006AB000287FF422AF28460CA987F058FF06F570
S31508006AC05D7495F881303FB302211120234A8FF077
S31508006AD0F4FFD5E900122B69CDE9012100936B6912
S31508006AE0022111201E4A8FF0E8FF20460F9919F05F
S31508006AF0E1FF034630BB96F88233013386F88233CA
S31508006B000024FAE603684146DB6898470028C3D1A3
S31508006B101024F2E60324F0E6D5E900121120CDE9A7
S31508006B20002102210F4A8FF0C8FF20460F9919F05D
S31508006B30C1FF03460028E3D0012111200A4A8FF03D
S31508006B40BCFFDDE701211120074A8FF0B6FFD2E727
S31508006B5000000000000000002CA90D08EFA70D0892
S31508006B600FA80D0852A80D0887A80D0864E80D0897
S31508006B702DE9F0478AB00DF10D030193152306465A
S31508006B8000934FF48072002308460C468EF06FFE81
S31508006B90E8B996F8963001220093204600238EF035
S31508006BA0F7FDA0B996F897300222009320460023F5
S31508006BB08EF0EEFD58B90DF10E030193162303224C
S31508006BC00093204600238EF052FE054610B10AB007
S31508006BD0BDE8F0874FF0100906F1C8070DF118084F
S31508006BE0102200214046B8F044F80DF10F03019336
S31508006BF015234FF480720093204600238EF037FE4B
S31508006C000028E4D196F89720EBB29A4251D917EDAD
S31508006C100C7BC44637F828ACA7F12603A7F1160E55
S31508006C20624618685968083303C273459446F7D113
S31508006C308DED007B0422002320468EF084FD00287B
S31508006C40C5D1052200232046CDF800A08EF0A0FD70
S31508006C500028BCD14046494606228DE80300002399
S31508006C602046CDE904898EF0D5FE0028AFD120460E
S31508006C709DF90F108EF030FE013530370028A6D169
S31508006C80032DADD120469DF90E108EF025FE002865
S31508006C909DD1B6F88E3007220093204600238EF049
S31508006CA077FD002893D120469DF90D108EF014FE2D
S31508006CB08DE782469FED027BBAE700BFAFF30080FF
S31508006CC00000000000000000A0F1840050E700BFAB
S31508006CD0054B18680368D96901A3D3E90023084757
S31508006CE000E0373B015D0300FC06022000000000BF
S31508006CF037B598F086FE044600286ED13A4B1A88B6
S31508006D009B78ADF804208DF806302FF031FC30F072
S31508006D1045F930F0A3F80546344B036030F02EFBF6
S31508006D20284630F037FA00B9FEE72DA3D3E9002349
S31508006D304FF0FF314FF0FF302FF022FC30F092F881
S31508006D40214630F0EBF898F05FFE01A830F0E4F940
S31508006D50044600B1FEE7264B264A98801860264B63
S31508006D6098801A60254B264A98621A60254A9880A8
S31508006D706FF06300DA6031F073FA0B2030F0C0F878
S31508006D8030F01EF930F064F800B9FEE751F0FEFA6B
S31508006D90204699F003F80821084699F006F800B14C
S31508006DA0FEE798F0F9FF2FF0A9FF98F043FF1021AE
S31508006DB01548ADF01CFC00B9FEE714491248ADF0C1
S31508006DC028FC00B9FEE710218C20114A50F0F6FE87
S31508006DD000B1FEE70F489AF00CFB03B030BD00BFC8
S31508006DE00AE020FFE2030000A93F0E08CDFB0908D0
S31508006DF080E200201BFA012050E2002020E2002059
S31508006E009BF9012010E20020E0860120B1050D085B
S31508006E10D0860120DE3E0E082DE9F04389B098F0B1
S31508006E20E1FD00B9FEE75C4D2B6803B9FEE70122D8
S31508006E309B8811460DF10B008DF80B3030F022F9C6
S31508006E409DF80B102B6802390022186889B230F0B9
S31508006E5019F9002305930793504B05AE06932B6843
S31508006E6093F82C208DF814201B681C7814F0200445
S31508006E7014D098F095FF00285CD098F091FF5CF04C
S31508006E8073FB0B46024640A1D1E900015CF010FDF8
S31508006E905CF07EFE079B18440124079030F036F913
S31508006EA09DF80B30002848D0981DC0005CF06CFB9C
S31508006EB037A3D3E900235CF0D1FB8946804630F03E
S31508006EC025F95CF051FB0B460246494640465CF004
S31508006ED0EFFC5CF05DFE079B1844079098F089FD6F
S31508006EE038B130F079F8002098F07FFD002098F04E
S31508006EF083FD29684B6963BB98F097FD10B3079B20
S31508006F00274F03F5FA7307932B681B7EBB7030F087
S31508006F105DF8F870286833463A462146807930F09D
S31508006F2093F858B34FF480510020C9F066FB99F0E6
S31508006F3064F823E00798C030AEE70798063300EBFD
S31508006F404310CAE72B6832462146987930F072F822
S31508006F50E7E70022962004920A691A44114BA2F523
S31508006F609B7298800392887903AA2146009630F08E
S31508006F7079F80028D6D1012098F062FD09B0BDE85D
S31508006F80F08300BFAFF300800000000060E36641B5
S31508006F900000000080842E41CC86012020A1070035
S31508006FA0B0070220A40702202DE9F3411E461C4B18
S31508006FB0044683424FF000038B4115460AD216A3B6
S31508006FC0D3E900235CF054FE1649144602462846C7
S31508006FD09CF067FE144B4EF66021B4FBF3F203FBFC
S31508006FE01244B4FBF1F34FF47A7801FB1344B4FB73
S31508006FF0F8F728460D4900979CF053FE46B12846F7
S3150800700008FB17420A4902B0BDE8F0419CF049BEA8
S3150800701002B0BDE8F08100BF005C26050000000054
S31508007020FF5B260534700E0880EE360006AD0D08A7
S315080070303A700E08000000002DE9F04F8AA1D1E948
S3150800704000018BA7D7E900674FF00009824B0022A1
S3150800705041F288354FF4FA644FF47A7CC3E90001AB
S3150800706075A1D1E90001C3E9146775A7D7E90067D7
S31508007070C3E90201C3E91667012140F6B83064275F
S315080070804FF4FA76DFF8F081A3F86670C3E9288929
S315080070900FF2B419D9E90089C3E92A894FF0FF39F3
S315080070A0A3F86A60DFF8D48119745D821975DC82E9
S315080070B01976588383F8202083F8302083F84020F7
S315080070C083F86010A3F862C083F8641083F8681028
S315080070D083F8702083F8802083F8902083F8B01016
S315080070E0A3F8B25083F8B410A3F8B64083F8B810E2
S315080070F0A3F8BA0083F8C02083F8D02083F8E020EC
S31508007100564B4FF0FF3BC3E902894FF0FF39DFF8D2
S315080071107081DFF870A1C3E9148941F287384FF00E
S315080071200009C3E9168941F288384FF00009C3E916
S3150800713028894FF00009DFF85081C3E900ABA3F8AE
S315080071406670A3F86A60C3E92A8919745D8219759D
S31508007150DC821976588383F8202083F8302083F858
S31508007160402083F86010A3F862C083F8641083F89F
S31508007170681083F8702083F8802083F8902083F8BD
S31508007180B010A3F8B25083F8B410A3F8B64083F849
S31508007190B810A3F8BA0083F8C02083F8D02083F883
S315080071A0E0202F4B9FED2A7BC3E902AB4FF0FF3B54
S315080071B0DFF8D8A0A3F86670C3E914AB00274FF030
S315080071C0000BA3F86A60DFF8C8A0264E83ED007BA3
S315080071D0C3E916ABC3E92889C3E92A6719745D822E
S315080071E01975DC821976588383F8202083F83020B5
S315080071F083F8402083F86010A3F862C083F864100F
S3150800720083F8681083F8702083F8802083F890202C
S3150800721083F8B010A3F8B25083F8B410A3F8B640B8
S3150800722083F8B810A3F8BA0083F8C02083F8D020F2
S3150800723083F8E020BDE8F08F806967FFFFFFFFFF56
S315080072407F9698000000000080F0FA020000000017
S31508007250E05EF8FFFFFFFFFFE8210120F82001208C
S315080072600820012020A10700800F05FDFFFFFFFF72
S31508007270816967FFFFFFFFFF8096980078ECFFFFA4
S3150800728079ECFFFF6079FEFFA08601006179FEFFB9
S315080072909F860100000000002DE9F04FDFF8789185
S315080072A08046D9F80040CBB044B121200121584A84
S315080072B08FF003FC03204BB0BDE8F08F1820ACF02C
S315080072C0E9FF9122C0E90224524A0E2102600122F6
S315080072D00346C0E904120471D9F800003694C9F8C7
S315080072E0003010B103685B6898470FF21C1BDBE996
S315080072F000AB36AF3846B6F0A3FC00220023CDE932
S3150800730022234FF4FA7300250124ADF89A3032236C
S315080073102946102208A8CDE924ABADF89E308DF891
S31508007320A0508DF8A8508DF8B8508DF8C8508DF833
S3150800733098408DF89C40B7F09CFC0E23ADF82030A1
S3150800734022ABCDE90E346B46C3E90055CDE90255AB
S315080073501C7193E80300CDE90CAB02AB8DF80C4029
S315080073600DF1440B8BE8030093E803000DF1500A76
S3150800737004AB8AE803001022294618468DF82240F5
S31508007380B7F077FC18AE04720FC886E80F002946D6
S3150800739010223846B7F06DFC1EAD8DF8E04097E830
S315080073A00F0085E80F00D9F8000040B379F031FDE9
S315080073B008A9404679F04CFD9BE8030039AB8DF8E7
S315080073C0D8408DF8E0400DF5807C83E803009AE804
S315080073D003003CAB8DF8EC4083E8030096E80F0009
S315080073E08DF8F8408CE80F0095E80F008DF81041ED
S315080073F04AAC04E90F003946404679F03FFD0020C3
S3150800740059E700BFAFF300800080C6A47E8D030055
S3150800741080A50E08982D0D08289E01200000000062
S315080074202DE9F04F2DED028BA34FDFF8CC823B6898
S3150800743083468BB0A8F8000023B9DFF8C092D9F8C4
S31508007440004034B19D4A012121208FF036FB0325E7
S3150800745065E0D820ACF01EFF0546D8222146B7F0D5
S3150800746008FC974B29462B6038462C7485F8204033
S3150800747085F8304085F8404085F8504085F86040EA
S3150800748085F8704085F8804085F8904085F8A040DA
S3150800749085F8B04085F8C04085F8D04006AE069419
S315080074A0B6F005FC3046B6F0DDFB3D6835B9854AD1
S315080074B0012121208FF001FB0B2530E02020ACF0C4
S315080074C0E9FE90230222C0E9023406234FF0010A9E
S315080074D0C0E905237C4B014680F804A0A0F806B055
S315080074E00561A5F804B00360C56148460694B6F080
S315080074F0D6FB3046B6F0ADFBD9F80000B6F006FB71
S31508007500054690B151462120704A8FF0D6FA214699
S315080075104846B6F0C4FB21463846B6F0C8FB2846AE
S315080075200BB0BDEC028BBDE8F08F9FED618B8DED46
S31508007530068B8DF820A008AC94E803008DE80300BC
S3150800754096E80C003868B6F0FAFA8DED068B8DF8D9
S3150800755020A094E803008DE8030096E80C0038683C
S31508007560B6F00EFB8DED068B8DF820A094E803008F
S315080075708DE8030096E80C003868B6F022FBB8F8E8
S315080075800000FFF789FE05460028C8D1504CB8F818
S31508007590007023682BB94F4DD5F80090B9F1000F4C
S315080075A001D04D4A4FE70420ACF074FE4B4B014620
S315080075B003602046CDF81890B6F089FB3046B6F041
S315080075C036FBD4F800B0BBF1000F01D1444A6FE78F
S315080075D02020ACF05FFE9C23C0E90239414B0146EE
S315080075E00360C0E904BA80F804A0C780C0F8189000
S315080075F0C0F81CB02846CDF81890B6F060FB3046A7
S31508007600B6F00CFB2D684DB951462120364A8FF04D
S3150800761054FA29462046B6F05AFB4DE72846B6F0F6
S31508007620FBFA054668B1314A012121208FF045FA57
S3150800763000212848B6F043FB00212548B6F047FB51
S315080076406DE7B8F8004001212046B3F097FE60BB0D
S3150800765001212046B3F0E0FE38BB20462449B3F0AA
S31508007660C3FE10BB4FF4FA412046B3F0C9FE0146EB
S31508007670D8B92046B3F0AAFEB8B91E4B20460693E1
S315080076801223079396E80600B3F086FE68B903ABA3
S3150800769004930123ADF80C4005930AF015F9DDE9CA
S315080076A0042321460AF034F939E7AC2537E700BF49
S315080076B00000000000000000389E0120A4A50E0866
S315080076C094A40E08CCA50E08E8A60E08F7A50E0881
S315080076D0309E01202C9E012013A60E0870A50E08C8
S315080076E045A60E080CA70E087AA60E08AFA60E0821
S315080076F070820300CAA60E0836100220349E0120A6
S315080077000348044B834202D0034B03B11847704722
S31508007710601102206011022000000000064B074994
S31508007720C91A891048BF0131491003D0044B0BB15F
S3150800773001481847704700BF6011022060110220F7
S315080077400000000010B5064C237843B9FFF7D8FFB0
S31508007750044B13B10448AFF300800123237010BD16
S3150800776000B4012000000000F4FB0E0808B5054B24
S315080077701BB105490548AFF30080BDE80840FFF78F
S31508007780CDBF00BF00000000C0280120F4FB0E0892
S31508007790A3F5803A704700BF174B002B08BF134B61
S315080077A09D46FFF7F5FF00218B460F461348144AFE
S315080077B0121AB7F05EFA0E4B002B00D098470D4B05
S315080077C0002B00D098470020002104000D000D482A
S315080077D0002802D00C48B6F005FF5DF0A9FB200092
S315080077E02900ACF0B4FE02F071F800BF00000800F2
S315080077F00000000000000000081200200812002007
S3150800780080020220E5E50B080000000008B5154BCC
S315080078104FF4E47200211846B7F02BFA0922034602
S31508007820026142611048114A98614FF48061DA6139
S31508007830002219629A625A62DA62C3F8F0000C48AA
S31508007840C3F8F400C3F8F8100A49C3F80021C3F8CE
S31508007850FC20C3F8042111F8010D98540132102AAE
S31508007860F9D108BDD8280120080D0D0801B8012056
S3150800787001B40120210D0D082DE9F84FDFF88880A5
S31508007880824698F800308946532B164601D0FFF7F2
S31508007890BDFF182707FB0A87D7F80051D7F8FCB0B1
S315080078A05D452FD9D7F8F840D7F8F410641BB442D1
S315080078B028BF3446484629442246B7F01DFAD7F869
S315080078C0F8302544AB4208BF0025A144361BABEB74
S315080078D0050B5E4528BF5E465EB1182303FB0A8387
S315080078E0D3F8F410324629444846B7F005FA34442A
S315080078F0354424B1182303FB0A88C8F800512046EA
S31508007900BDE8F88F0024E2E7D8280120F8B5182743
S3150800791000FB0775124B0E461D4407FB0033DB6A56
S315080079201446012B0AD0022B14D023B9284676F028
S3150800793053FB844208D900242046F8BD284676F031
S315080079404BFB844228BF044622463146284676F039
S315080079504CFBF1E72846BDE8F84076F061BB00BF6E
S31508007960D8280120F8B50B4B04461B780D46532B37
S31508007970164601D0FFF74AFFEFF311874FF02001B3
S3150800798081F31188324629462046FFF7BFFF87F361
S315080079901188F8BDD82801202DE9F041164C1E465D
S315080079A023780546532B8846174601D0FFF72EFF46
S315080079B0082D1DD8EFF3118C4FF0200181F31188A3
S315080079C065B1182005FB000344F80380E21800237C
S315080079D0576000FB0542166293625362182303FB45
S315080079E00544069BE3628CF311880020BDE8F0810C
S315080079F04FF0FF30FAE700BFD82801202DE9F843F9
S31508007A00174E1F4633780546532B8946904601D0B4
S31508007A10FFF7FCFE082D1FD8EFF311824FF0200167
S31508007A2081F311886DB11824002304FB0564C4F89A
S31508007A30F090C4F8F480C4F8F870C4F80031C4F8BB
S31508007A40FC30182303FB0566089BC6F8043182F34D
S31508007A5011880020BDE8F8834FF0FF30FAE700BF31
S31508007A60D828012008B591F0FEFA1FF053FA1FF046
S31508007A7083FA094822F0D6FB00224FF461710748C1
S31508007A8083F0C2FE30B1BDE8084001212120044A36
S31508007A908FF013B808BD00BF98A50020C098002035
S31508007AA0220D0D0810B500220C461348134991F013
S31508007AB082FB18210A20124AC8F0F4FA114B186002
S31508007AC040B921200121104A8EF0F7FF40F20170DB
S31508007AD076F0F7FC20460D4A0A49C7F0A4FF40B9DC
S31508007AE0212001210A4A8EF0E8FF40F2027076F062
S31508007AF0E8FC002010BD00BFC8B40020517E000875
S31508007B0088100D085C2C0120500D0D0864100D0816
S31508007B10730D0D0808B5104B1B7893B10F4B1B78E6
S31508007B207BB10F4B1B782BB101210E4800F0ACFD41
S31508007B30012008BD322240F2B6310A4876F04DFBE4
S31508007B40F6E7094B1B7813B164221146F5E740F2B4
S31508007B50B6323221F1E700BF02BC0120F5CC012084
S31508007B60F4CC012008120020F3CC012010B5084BF4
S31508007B70084C1870204691F049F8074B18702046B3
S31508007B8091F09CF8054B1870BDE81040FFF7C2BF8E
S31508007B9002BC012098A50020F5CC0120F4CC0120D8
S31508007BA008B5144891F046FBA0B1134891F02EF899
S31508007BB0124B1870104891F081F8114B1870114843
S31508007BC021F042F8003818BF01200F4B18700948F9
S31508007BD091F039FB0D4B1B780BB9FFF79BFF0C484F
S31508007BE000F02CFD0B4B186818B1BDE8084000F0F2
S31508007BF025BD08BDC8B4002098A50020F5CC0120F5
S31508007C00F4CC0120EC4B0120F3CC012001BC01206F
S31508007C1008120020B02A012008B5094B1868C8F0D8
S31508007C20A3F801300AD121200121064A8EF045FF2A
S31508007C30BDE8084040F2067076F043BC08BD00BFB8
S31508007C40642C01208D0D0D08014608B54FF47A7293
S31508007C5000238002890D5CF00BF8094B0146186871
S31508007C60C8F066F850B121200121064A8EF025FF9A
S31508007C70BDE8084040F2057076F023BC08BD00BF99
S31508007C80642C0120A50D0D0810B540F6B833022165
S31508007C900B4A21208EF011FF40F6B830FFF7D4FFCB
S31508007CA00122084C084B204600211A7000F0ECFC13
S31508007CB02046BDE810404FF4FA7176F092BA00BF3C
S31508007CC0BE0D0D080812002001BC012008B5FFF7FB
S31508007CD0A3FF064B1A7842B100221A700221BDE8AA
S31508007CE008402120024A8EF0E8BE08BD01BC0120EA
S31508007CF0FD0D0D0808B5094B0A211868C8F018F8D3
S31508007D0050B121200121064A8EF0D7FEBDE8084071
S31508007D1040F2057076F0D5BB08BD00BF602C012087
S31508007D201E0E0D0800487047B42A012070B58AB0A7
S31508007D3001AA1546174B03F1200614461868596818
S31508007D40083303C4B3422246F7D1186820601248A4
S31508007D5091F06BFA114890F059FF04460F4890F0DD
S31508007D60ADFF002C18BF04460D488DF8054083F07A
S31508007D709BFC0C4B8DF8260093F8623906488DF863
S31508007D80043091F060FA2946074876F0DDF90AB022
S31508007D9070BD00BFA0100D08C8B4002098A500202B
S31508007DA0C0980020788C0020B42A012008B5094B19
S31508007DB00146186858B100231822C8F0B3F940B133
S31508007DC0054A0121BDE8084021208EF076BE034A07
S31508007DD0F7E708BD5C2C0120360E0D08630E0D086A
S31508007DE07FB50123ADF80C30044B04906846059323
S31508007DF0FFF7DCFF07B05DF804FB00BF297F00082A
S31508007E007FB50123ADF80C30044B8DF804006846A5
S31508007E100593FFF7CBFF07B05DF804FBAD810008BB
S31508007E2013B5094B1B786BB100240DF107010473D8
S31508007E30064876F085F99DF80730022B02D12046D0
S31508007E40FFF7DEFF02B010BD02BC0120B42A0120F4
S31508007E5048F2040213B50388044693421ED007D895
S31508007E6003F5FF437F339BB2012B1BD902B010BD2C
S31508007E7048F212029342F9D102211B4A21208EF0C0
S31508007E801CFE8FF0EAFC036840F6B8315C690023F3
S31508007E90A446164A02B0BDE810406047027A144B61
S31508007EA01A70E3E713480DF1070176F049F99DF8D2
S31508007EB00700012801D1FFF7A3FF94F90830012B29
S31508007EC003D094F90930012BD0D102210A4A212086
S31508007ED08EF0F3FD8FF0C1FC036840F6B8315C699B
S31508007EE0024A0023A047C1E7AC0E0D08AFE0070819
S31508007EF002BC0120B42A0120840E0D084B690846ED
S31508007F0003B1184702212120014A8EF0D6BD00BFD1
S31508007F10E80E0D0800220249024823F01FBA00BFE6
S31508007F20E5810008C8B400208389012B06D1044BDB
S31508007F301B780BB9FFF7A8BEFFF7ECBF704700BF69
S31508007F4001BC012000220249024823F007BA00BFFB
S31508007F50657A0008C8B4002030B5A5B003AB019314
S31508007F60812301AC054602935DF04AFB21465EF08B
S31508007F7053F878B945B1DDE90112094876F0EEF80B
S31508007F800121074876F020F994E8030028F0E4FF79
S31508007F9025B030BD01212120024A8EF08EFDF7E77B
S31508007FA0B42A0120180F0D0810B5002204462649E8
S31508007FB0264800F0CBF90023224619462448C3F088
S31508007FC03FFC244B186040B921200121224A8EF03B
S31508007FD074FD40F2047076F074FA002322460121FB
S31508007FE01E48C3F02DFC1E4B186040B92120012104
S31508007FF01C4A8EF062FD40F2047076F062FA0221A5
S315080080002120194B194A8EF058FD194A02210123DD
S3150800801021208EF052FD23F095FD0368DB6F98470B
S315080080200120FFF799FF00F0F5FA0021114876F0D4
S31508008030DCF8114890F034FE104B114918701148BD
S3150800804086F084FD10BD00BF300F0D08B42A01204C
S31508008050E17D0008642C01203C0F0D08DFE00708CD
S31508008060602C0120560F0D086E280E08700F0D089B
S31508008070940F0D080812002098A5002002BC0120C4
S31508008080A42A01205892002038B50546FFF78CFF30
S31508008090044638B10C4822F0F3FD204676F011FA72
S315080080A0204638BD2B682846DB689847044608B141
S315080080B00648F0E7064B1A6852F8580C1A5818443E
S315080080C0926B9047ECE700BFB10F0D08C30F0D0880
S315080080D0444C012010B5037C012B05D1BDE81040A6
S315080080E040F6B830FFF7B0BD144B1B781BB1BDE89E
S315080080F01040FFF7EBBDFFF78FFD114B1C78D4B985
S31508008100104891F092F822464FF461710E4883F0B8
S315080081107BFB04460B4891F096F824B101210B4AE3
S3150800812021208EF0CAFC0020FFF716FFBDE810409C
S315080081300320FFF765BE0221054AF1E701BC0120CD
S3150800814002BC0120C8B40020C0980020220D0D08EA
S31508008150D40F0D08014B1878704700BF02BC0120E8
S3150800816038B500240C4D2146202205F1D000C5E97A
S315080081703244B6F07EFD0948094BC0E90244036063
S315080081803033A5F8F04085F8F2404360054A0649C1
S31508008190BDE83840B5F0E1BDB42A0120A02A012087
S315080081A01C100D0890040220A9E0070810B5838961
S315080081B0012B11D10479012C07D1FFF7B7FD214610
S315080081C0BDE81040054875F0EABF032CF7D1BDE8B5
S315080081D010400348B5F000BC10BD00BFB42A01200A
S315080081E0209E012010B50121094822F097FE20B1F2
S315080081F05DF006FA0121B6F04FFE064823F006F8B0
S3150800820023F0A0FCBDE8104003689B6F184700BF29
S31508008210444C0120C8B400200346074A30B500F193
S315080082202805144618685968083303C4AB42224621
S31508008230F7D11868206030BD682C012030B5134D81
S3150800824085B02B6804461988114B803901932D2374
S3150800825001EBD1710022009349108023284696F03D
S31508008260B2FE2046B6F055FD142809D8002201238F
S315080082700092CDE9012321460522284696F0B2FF51
S3150800828005B0BDE8304075F03BBF00BF682C012043
S315080082900F150D0837B505460B480C4C03681988A9
S315080082A05A880B4B4039002D18BF234601934023AB
S315080082B001EBD1710093453A491096F084FE03B05C
S315080082C0BDE8304075F01CBF682C0120E8120D0887
S315080082D0E8100D0813B5134C236820465A88124B2C
S315080082E0453A0193112302EBD271009302EB610226
S315080082F01223682196F067FE236820465A880B4B9E
S31508008300453A0193122302EBD271009302EB610204
S315080083101023082196F057FE02B0BDE8104075F00C
S31508008320EFBE00BF682C0120E8140D08C4100D0824
S3150800833010B50446044896F0C1FD2046FFF77EFFB7
S31508008340BDE81040FFF7C6BF682C01202DE9F041B3
S31508008350054617460C4681B10846B6F0DAFC1428DD
S3150800836006D9214822F08CFC2F242046BDE8F0814E
S31508008370214605F1B000B6F0DEFC2CF0D7FC044629
S3150800838020B10146194822F07BFCAC2400202DF0D0
S31508008390C1FA064628B10146154822F071FC46F096
S315080083A0A06405F1840840462DF01CFB064628B15A
S315080083B00146104822F064FC46F0A0646FF07F4244
S315080083C000234046C5E9222396F078FD064628B1E3
S315080083D00146094822F054FC46F0A0644046FFF7DF
S315080083E01BFF85F8CC70C0E7DF170D08F1170D08DD
S315080083F00E180D0821180D083D180D08F0B507468A
S3150800840000F184058BB0284696F058FD97F8CE20E3
S315080084104C4905A85CF0D0F8002301220093CDE969
S31508008420013205A91A4607F1D004284696F0DAFE65
S315080084302046B6F06EFC1328234605AA07F1E00687
S3150800844074D9144618685968083303C4B3422246D7
S31508008450F7D119889B782180A37000238DF82730DF
S31508008460002401262346324637492846CDE90146E7
S31508008470009496F0B7FE40233246009305A923469A
S315080084802846CDE9014696F0ADFE234602222F493D
S315080084902846CDE90146009496F0A4FE0322234619
S315080084A02B492846CDE90146009496F09BFE97F89D
S315080084B0CF302849A3420CBF4E22592205A85CF0AA
S315080084C07BF80422234605A92846CDE901460094EF
S315080084D096F088FE97F8F0301F49A3420CBF4E224B
S315080084E0592205A85CF068F8234605222846CDE9F6
S315080084F00146009405A996F075FE97F8F1308BB100
S315080085001649174A05A8B34218BF0A4615495CF02A
S3150800851053F8234606222846CDE90146009405A9C4
S3150800852096F060FE75F0ECFD0BB0F0BD14461868C9
S315080085305968083303C4B3422246F7D11868206045
S315080085408EE700BF5A180D0869180D0872180D082D
S3150800855009950E0880180D088F180D0856180D086D
S3150800856052180D08A0180D084FF0FF3301222DE907
S31508008570F04F85B0CDE902320423234ACDE9003312
S3150800858022490023814696F02DF928B9204805B0DE
S31508008590BDE8F04F22F074BB1B482BF083F8064663
S315080085A009F1840096F08AFC00254FF0030A06EBD1
S315080085B04604C4F1800404EBD4746410AE4204DCAF
S315080085C005B0BDE8F04F75F09BBD002705EB4508E3
S315080085D058FA84F85FFA84FB5FFA88F82A4639461F
S315080085E009482BF0C9FD50B107EB4701594403234D
S315080085F042464846CDF800A0C9B275F0B4FD013729
S31508008600BE42EBD10135D9E780CD0120F6CC012059
S31508008610A9180D08014890F0BABD00BF444C0120C6
S3150800862010B504460178044822F0B4FCA37883F018
S315080086300103A37010BD00BF444C012073B5036944
S315080086400446E3B14369D3B10E4B684619680B6813
S315080086501B699847D4E90423DDE90065A178002958
S3150800866018BF1346D4E902125B1842F10002B3425E
S31508008670AA4104D22046FFF7D3FFC4E9026502B037
S3150800868070BD00BFFC06022038B500230022C0E9F1
S315080086900433002304460D46C0E902230278024843
S315080086A022F064FCA57038BD444C0120014890F0C6
S315080086B0F8BB00BF98A50020014890F0F4BB00BFA6
S315080086C098A50020044A08B58368026024324260EF
S315080086D00BB1B5F080FF08BD001A0D08A0F1040023
S315080086E0F0E700BF10B50446054B0360443343600A
S315080086F00FF070FC2046FFF7E5FF204610BD00BFCF
S3150800870030710D08A0F10400ECE700BF38B5124B34
S31508008710044603F13802C26003F14C02026103F118
S315080087206002426142680360743383613AB18368C8
S315080087302BB1536042681A600023C0E9013304F183
S31508008740440528467BF04BFE284675F05FFD201D44
S3150800875075F05CFD204638BD1C3A0D08A0F11400E2
S31508008760D4E7A0F11000D1E7A0F10C00CEE7A0F104
S315080087701800CBE71F2008B502210C4A8EF09DF998
S315080087800B4821F049FD78B90121094821F0A0F9E3
S3150800879050B9084879F060FA1F200221064A8EF07F
S315080087A08CF9034890F07BFB08BD00BFC7180D087D
S315080087B098A5002070150020E5180D08F8B51E4C80
S315080087C0002526461D4F1E481E4B3A461E49C0E93F
S315080087D001550360C560057445610583B5F0BDFAAA
S315080087E01A4B294646F8D83B3246234604F1080078
S315080087F005F036FC04F12003C4E93435144B3A4637
S31508008800C4F8D830134B2046C4E9383604F1F403CB
S31508008810C4E93B3541F20A430F4984F8E85084F825
S31508008820F451A4F8DC30B5F098FA3A46BDE8F840B9
S315080088300A490B48B5F091BA701500209004022039
S31508008840A02C01204CEB0D0849910208E4380D08CC
S3150800885000D80D08E4D70D0863E2070809E20708FF
S31508008860E40402207FB5044602211F20854A8EF0C3
S3150800887024F9234602211F20834A8EF01EF9834DD0
S3150800888002211F207F4A8EF018F902211F20804AF4
S315080088908EF013F92B784BB9284622F01BFE0028D8
S315080088A00CBF012300232B7040F0E5802146794850
S315080088B020F0C4F95CF0A4FE0446B6F0D5FA002808
S315080088C040F0D980201D1DF029FC04F108001DF098
S315080088D0B3FB2046B6F0DDFA6F4A704B022100283A
S315080088E018BF13461F206E4A8EF0E7F8FFF742FFBF
S315080088F0002840F0C0806B4B039001936A4B6B488D
S31508008900029390F081F96A4C039001AB694823639E
S3150800891022F07EFB002840F0AE80674890F085FC88
S31508008920664DD5E8AF3FDA070BD4284697F02AFB01
S3150800893038B1634A63496448B5F00FFA284697F098
S3150800894026FB624DD5E8AF3FDB070FD4284697F0E4
S3150800895019FB58B15C495E480FF0A0FB584A5D49BF
S315080089605B48B5F0FAF9284697F011FB5A4D584B73
S315080089702846236420F0F2FB2369A5631BB9574BED
S31508008980574A23615A60E36B53BB564D6B68002BFD
S3150800899070D105F11400266975F081FC05F11C00FB
S315080089A075F07DFCEB6803B92B7295F834304E48A8
S315080089B023F0050385F8343075F071FC4B4875F0E3
S315080089C06EFC95F834304A4823F0180385F834309D
S315080089D075F065FC00236E602B7285F83430E5630C
S315080089E0236C0BB9434B2364434D444B28462169FA
S315080089F0636287F02BFB636A28462B6186F0EAFCE4
S31508008A00002838D122692562002A36D03C4B3D4DD4
S31508008A105A60636102F02CFB3B4B0221A0623B4A81
S31508008A202120E3628EF049F82846216911F0DEFD1F
S31508008A3008BB2069A5618AF0D9FD354B21696064B8
S31508008A40344823608EF0CEFE32481DF057FB184995
S31508008A50314811F047F90446174890F0F4FB3CB941
S31508008A602E4822F00DF9144822F0B8FC044630B11D
S31508008A70204600E0032004B070BD2F20FBE700F07D
S31508008A80AFF8F5E70F190D0842190D08C0B4002014
S31508008A904E190D08EC4B0120FE180D0806190D0895
S31508008AA05E190D08AD860008B986000898A500204D
S31508008AB098040220444C0120C8B40020982C0120B8
S31508008AC0900402200BE2070894040220942C01204B
S31508008AD020120020E5860008A02C01207C05022033
S31508008AE0C4EF0120E43F0120084001201040012086
S31508008AF0F03F0120E0680020783D01205C05022057
S31508008B00703D0120343D01206005022070190D08D2
S31508008B10A02A0120E4040220786C0020A0190D0880
S31508008B2010B51348FFF79EFE08B175F0CAFC114848
S31508008B3090F07BFB5CF064FD00B10C3015F016FE7E
S31508008B400C4890F080FB1F2002210B4A8DF0B5FFE0
S31508008B500A4859F0CFFE08B175F0B3FC084C2068F6
S31508008B60C6F0D5FF08B1B5F036FD206010BD00BFD0
S31508008B70C5190D08C8B40020D2190D08209E012079
S31508008B809C2C012010B50A4890F0EBFA0021094AFE
S31508008B900948C6F048FF094C02212060084A1F20F0
S31508008BA08DF08BFF23680BB9B5F015FD10BD00BF1E
S31508008BB0444C01203C1A0D08218B00089C2C0120EE
S31508008BC0E4190D0801481BF087BF00BFB441012016
S31508008BD0024B01211868C6F0F3BF00BFBC2C012068
S31508008BE010B50A481BF0CAFE044608B1B5F0F3FCF6
S31508008BF001F03AFA01F080FA2146054A0548C6F01E
S31508008C0012FF054B18600028F0D010BDB4410120B2
S31508008C10681A0D08C58B0008BC2C012010B504463F
S31508008C2001210C20064A8DF048FF0023E068A36066
S31508008C3020B1BDE8104003689B68184710BD00BF07
S31508008C408C1A0D08A0F10400E8E700BF10B50A4C1D
S31508008C50D4E8AF3FDB070DD4204697F093F948B127
S31508008C600648074B074A08490360B5F076F82046D8
S31508008C7097F08DF9014810BD242D0120282D0120DB
S31508008C80C0D00D0890040220CDE2070810B50446AE
S31508008C900B4B03606433436000F50E7029F01CFA31
S31508008CA0636A23B1002204F11C00626298472369B3
S31508008CB023B1002204F1080022619847204610BD1E
S31508008CC08C4B0D08A0F10400E0E700BF10B5044680
S31508008CD0034B40F8343B75F00FFB204610BD00BF30
S31508008CE088470D0837B5C0680D46144638B90121BE
S31508008CF00C200E4A8DF0E1FE002003B030BD1A6844
S31508008D002146019200221A6001AA06F0CBFF01A8AB
S31508008D1075F0F2FAA38823B9E38813B92378402BB0
S31508008D20EAD02B8943F040032B81E5E79F1A0D080B
S31508008D30A0F10400D6E700BF73B5164807F06EF930
S31508008D401549164AD1F8AC34154E164D5360A1F59F
S31508008D50405133460F48009507F03CFA124B3361F1
S31508008D6020F0D6FC044602460A49304608F06EF959
S31508008D702946204620F060FB40B10C4821F080FFD0
S31508008D806D210B4B0B4A0C485BF03EF96C6002B048
S31508008D9070BD00BF48180020789C00200C050220F2
S31508008DA0EC0402206817002080510100D21A0D0831
S31508008DB0EE1A0D08031B0D08211B0D0870B50024BB
S31508008DC03248334B334E03606433436000F1080383
S31508008DD0C0E90233304BC0E90440836100F11C034B
S31508008DE0C0E907332D4BC0E90940C0E90B342C4BC9
S31508008DF0C0E90D444364203383640523C0E9204455
S31508008E00C0E92244C0E9644480F83C40046480F820
S31508008E10744080F89841C0F89C4180F8A04180F8D9
S31508008E20B84180F8D04180F8E841C0F81C321D4BA3
S31508008E3032461D491D4DC0F83832C0E98F4480F8C6
S31508008E400042C0F8184280F8204280F84442B4F044
S31508008E5084FF324616491748B4F07FFF3246164952
S31508008E601648B4F07AFF2846154B6C6040F8103B5C
S31508008E702C7222F09FFEC5E93444C5E936443246D1
S31508008E802846BDE870400F49B4F067BF481800206F
S31508008E908C4B0D0890040220250C01089D00010842
S31508008EA0A81B0D088C1B0E088D8C0008681700205F
S31508008EB0E1E207080C050220E3E20708EC040220B9
S31508008EC088470D08CD8C0008012903BF034B0020F5
S31508008ED01B78A62008BF1370704700BF2AD601204A
S31508008EE0022938B514461D460FD12022002108480C
S31508008EF0B5F0BFFE3CB1202D2A46214628BF2022C8
S31508008F000348B5F0F9FE002038BDA620FCE700BFEF
S31508008F100AD60120104608B56AB163B102290CD1F8
S31508008F20202B28BF20231A46029B05491A60B5F054
S31508008F30E3FE002008BD2F20FCE7A620FAE700BFC5
S31508008F400AD60120012905D102B11278024B002068
S31508008F501A707047A62070472AD601202DE9F043DB
S31508008F601D46002389B0074608460E461446CDE935
S31508008F70053322F099FB18B9D82009B0BDE8F0836B
S31508008F80304605A922F05CFC0028F6D1204622F0DE
S31508008F908BFB0028F0D0204606A922F051FC0028B9
S31508008FA0EBD1DDE90586079007A9124822F048FCAF
S31508008FB00446D8B9079B18EB030902D10EB1B5F0E0
S31508008FC00AFB009302213B461F20CDE901860A4A87
S31508008FD08DF073FD6B689E420AD83246494628686A
S31508008FE0B5F02DFE6B689E42E9D86E602046C4E750
S31508008FF01924FBE721720800181C0D08014822F005
S315080090006FBD00BF00720800002307B5034801932F
S3150800901001AB22F069FC03B05DF804FB007208009E
S31508009020014822F019BD00BF0C72080010B50648A9
S315080090300C4622F0D9FB40F20123984202BF4FF6B4
S31508009040F1732380002010BD0C720800014822F03D
S3150800905047BD00BF0D72080073B5002601AB0C486A
S315080090600C461546019622F03FFC40F20123984231
S3150800907008D14CB1062D09D920462946054A75F06E
S31508009080B1F9304602B070BD0B20FBE71920F9E7AD
S315080090900D720800361C0D08014822F0DDBC00BF21
S315080090A00B72080010B506480C4622F09DFB40F2EC
S315080090B00123984202BF48F205032380002010BD11
S315080090C00B720800014822F00BBD00BF0E720800A3
S315080090D073B5002601AB0C480C461546019622F0DE
S315080090E003FC40F20123984208D14CB1062D09D958
S315080090F020462946054A75F075F9304602B070BD16
S315080091000B20FBE71920F9E70E7208003D1C0D0835
S31508009110014822F0E5BC00BF10720800002307B51D
S315080091200348019301AB22F0DFFB03B05DF804FBB3
S3150800913010720800014822F0D3BC00BF1172080063
S31508009140002307B50348019301AB22F0CDFB03B01A
S315080091505DF804FB11720800014822F0C1BC00BF8B
S3150800916012720800002307B50348019301AB22F0E9
S31508009170BBFB03B05DF804FB12720800014822F03D
S315080091806BBC00BF1872080010B506480C4622F0E2
S315080091902BFB40F20123984202BF012323800020C3
S315080091A010BD00BF18720800014822F099BC00BF24
S315080091B00F72080073B5002601AB0C480C4615461D
S315080091C0019622F091FB40F20123984208D14CB156
S315080091D00C2D09D920462946054A75F003F930466B
S315080091E002B070BD0B20FBE71920F9E70F720800E3
S315080091F0471C0D08014822F073BC00BF0472080022
S31508009200014822F071BB00BF04720800014822F031
S3150800921081BC00BF1F72080007B5002000900348F4
S3150800922022F0B8FB03B05DF804FB00BF1F7208000C
S31508009230014822F011BC00BF0772080013B5104898
S315080092400C4622F0D1FA40F201229042034604D19C
S315080092504FF47063238000230FE070B92388B3F5B9
S31508009260805FF8D34FF4C2732F240121CDE900346F
S31508009270044A054B8DF021FC2346184602B010BD62
S3150800928007720800741C0D08541C0D08014822F0CA
S31508009290FBBB00BF0872080010B506480C4622F052
S315080092A0CFFA40F20123984202BF4FF47A73236043
S315080092B0002010BD08720800014822F011BC00BF4A
S315080092C009720800014822F00FBB00BF09720800A6
S315080092D0014822F005BC00BF0A720800014822F0C6
S315080092E003BB00BF0A7208000B4610B5084A0C46B5
S315080092F008480949FFF732FED82807D115F0C2FAFF
S3150800930003682146BDE810409B68184710BD00BF9A
S3150800931027720800851C0D08267208000B4610B532
S31508009320084A0C4608480949FFF718FED82807D105
S3150800933015F0A8FA03682146BDE810405B6918478E
S3150800934010BD00BF25720800A11C0D082472080074
S315080093500B4610B5084A0C4608480949FFF7FEFDB2
S31508009360D82807D115F08EFA03682146BDE81040C3
S315080093701B69184710BD00BF23720800C71C0D08DB
S3150800938022720800022307B501A8D1E90012019349
S315080093905CF058F818B90199024822F075FB03B039
S315080093A05DF804FB207208001FB50220039006989A
S315080093B0009003A85CF05EF818B90399024822F0F9
S315080093C063FB05B05DF804FB20720800002370B546
S315080093D0164886B00D461646049322F065F9E8B19C
S315080093E0124804A922F02CFAB0B9049B3246002B85
S315080093F008BF0223294605A805935CF0A3F804468E
S31508009400029073681F2001936B6802210093084A33
S31508009410049B8DF052FB204606B070BD15F032FA5B
S315080094200368324629469B699847E8E72072080090
S31508009430E01C0D08014822F027BB00BF2172080076
S31508009440014822F0FDB900BF21720800014822F048
S3150800945047BB00BF29720800014822F045BA00BF81
S3150800946029720800014822F055BB00BF05720800A2
S3150800947007B500200090034822F08CFA03B05DF887
S3150800948004FB00BF05720800014822F0CDBA00BFF0
S3150800949028720800014822F07BB900BF287208002C
S315080094A00020094B10B5186032B9084C2146BDE8B2
S315080094B01040074822F0E8BAA1F5005105488C1873
S315080094C08FF060FEF2E700BF2C2D012000E01708A0
S315080094D021720800444C012000232DE9F04F85B085
S315080094E080460F462C4803A91546039322F0A8F98F
S315080094F0002838D1294E039933681BB928488FF0BC
S3150800950022FE80BBD5E900143368039A02EB030BED
S3150800951014F003031BD10A462346594620488FF008
S3150800952018FE00BB4046316822F0AEFAD8B9384674
S31508009530696822F0A9FAB0B932686B68002013444A
S3150800954013F03F021CBF40339B1A33600BE004F153
S31508009550040AAAEB030A504601911DF04DFA019937
S31508009560814618B9AC2005B0BDE8F08F2246B5F0A3
S31508009570C3FBAAEB0402FF2109EB0400B5F079FB53
S3150800958053464A46594606488FF0E3FD0446484680
S315080095901DF056FA2046C4E7217208002C2D01203A
S315080095A0444C012008B50A4602480349FFF794FFD0
S315080095B008BD00BF227208002372080008B50A46D3
S315080095C002480349FFF788FF08BD00BF2472080058
S315080095D02572080008B50A4602480349FFF77CFFCA
S315080095E008BD00BF2672080027720800002104463D
S315080095F000B589B01A2201A80091B5F03AFB2346B6
S31508009600074A1E2168465AF0A3FF6946054821F015
S3150800961037FB684674F058FFC3F074FBB4F0DBFF01
S315080096202B1D0D08411D0D082DE9F04F0446D0E904
S315080096300076384B87B0D3F828B0D3F82CA0D3F8E7
S315080096403490D3F83880D0E9025301930369012195
S3150800965002934369304A039383690493C3690020DC
S3150800966005932E4B1B688DF028FA5B4601210020D6
S315080096702B4A8DF022FA534601210020294A8DF003
S315080096801CFA4B4601210020274A8DF016FA43465C
S3150800969001210020254A8DF010FA234601210020D9
S315080096A0234A8DF00AFA00F025FB3B4601210020EB
S315080096B0204A8DF002FA3346012100201E4A8DF019
S315080096C0FCF92B46012100201C4A8DF0F6F90121F0
S315080096D00020019B1A4A8DF0F0F901210020029B17
S315080096E0184A8DF0EAF901210020039B164A8DF0ED
S315080096F0E4F901210020049B144A8DF0DEF90121CA
S315080097000020059B124A8DF0D8F900F0F3FAC6F04E
S31508009710E0FDFEE700ED00E0A21D0D08F837012088
S31508009720B81D0D08CE1D0D08E41D0D08FA1D0D08FF
S31508009730101E0D08261E0D083C1E0D08521E0D088B
S31508009740681E0D087E1E0D08941E0D08AA1E0D081B
S31508009750C01E0D08024B034A1A6074F0B6BE00BF5D
S31508009760F837012044524148024B034A1A6074F004
S31508009770ACBE00BFF83701204655504D024B034A90
S315080097801A6074F0A2BE00BFF8370120465355424E
S31508009790024B034A1A6074F098BE00BFF8370120DE
S315080097A054465355024B034A1A6074F08EBE00BFE6
S315080097B0F837012054464353024B034A1A6074F0A3
S315080097C084BE00BFF83701204E4D4244012108B53A
S315080097D00020064B064A8DF070F900F08BFAC6F0A9
S315080097E078FD044904485BF019F9FEE7D61E0D0812
S315080097F059490E08721D0D08891D0D0800240D46CD
S3150800980000B59BB06022214602A80194B5F031FA52
S315080098102B466421094A01A85AF09AFE01212046DE
S31508009820074A01AB8DF049F900F064FAC6F051FD1C
S31508009830044905485BF0F2F8FEE700BFF91E0D087B
S3150800984059490E08721D0D08891D0D08034B036042
S31508009850034B0B604FF4A0731360704794370120D5
S3150800986094320120034B0360034B0B604FF4A07343
S315080098701360704730320120302D012000240D4638
S3150800988000B59BB06022214602A80194B5F0F1F913
S315080098902B466421064A01A85AF05AFE01212046A1
S315080098A0044A01AB8DF009F900F024FAB4F093FEEE
S315080098B00C1F0D0859490E08024B034A1A6074F02A
S315080098C004BE7047F8370120474F44572A2108B588
S315080098D0024800F05BF9AAF0B4F8FEE71C1F0D0871
S315080098E0024B01211868C6F06BB900BFC4380120C5
S315080098F00D4BD9889A8889B292B2914211D0D988EB
S315080099009A8889B292B291423DBF9A88D8881B89B3
S31508009910D8882DBF9B8813FA80F0801AC01A80B2A7
S3150800992070470020704700BFFC370120F8B50E4687
S31508009930074608B9B4F04FFE154D2C898C42F9D369
S31508009940FFF7D6FF201A80B286421BD8EB88E88834
S31508009950E41AA4B2A6422B6815D92246394613FA48
S3150800996080F0B5F0C9F92868321B3919B5F0C4F981
S31508009970EB8816FA83F12B89B1FBF3F203FB12117C
S3150800998089B2E980F8BD3246394613FA80F0EDE728
S31508009990FC37012038B50446C6F095FE0121054678
S315080099A00846C4F077FF2846C6F088FE0C480D4BDB
S315080099B02146B4F8002100684BF080FC4FF0FF32D6
S315080099C000210120C6F03DF9C6F07DFE04460021BF
S315080099D00120C4F05FFF2046BDE83840C6F06EBEE1
S315080099E090090220E1980008002370B5174CC2B010
S315080099F0174DADF804318DF806314FF0FF330022CC
S31508009A00206801A9C6F0C2FB0028F6D19DF80661B8
S31508009A1001A8FFF7BFFF4EB140F60D23ADF804309D
S31508009A20022301A8ADF80431FFF7B4FF2A6852B142
S31508009A30084901A85AF0C0FD0023ADF8040101A8A1
S31508009A402B60FFF7A7FF00231A46D9E758380120ED
S31508009A505C380120461F0D082DE9F843DFF85080D1
S31508009A601E46B8F800901546A3EB09070D4BFFB242
S31508009A701C89FFF73DFF241AA4B2A74207D8394626
S31508009A8005EB0900FFF752FF0023A8F80030064847
S31508009A9032462946054B00684BF05EFBBDE8F843A5
S31508009AA0FFF796B8FC37012090090220599A00085A
S31508009AB058AF012070B5214E3468002C3DD14FF4C3
S31508009AC082711F4A0A20C6F0EDFA1E4D1E4A28600A
S31508009AD021461E48C5F0A7FF1D4B1E4A9C801A60EA
S31508009AE04FF4807230601A81DC8008B9B4F073FDD7
S31508009AF02B68002BFAD0184C94F060FF8022174B85
S31508009B00174920684BF028FB8022144B154920681A
S31508009B104BF022FB0B204DF0C3FF0B204DF07AFFD4
S31508009B201422114B0521DA640422A3F580531A6521
S31508009B300E48BDE87040A9F099BE70BDC438012032
S31508009B405C1F0D08583801207C1F0D08E99900088C
S31508009B50FC3701202BD6012090090220599A0008CB
S31508009B60D3E5012053E501200020015B0000015BDD
S31508009B7008B5FFF72DF80421034B03F500521165CC
S31508009B80D164DB6C08BD00BF0000015B70B50C46F4
S31508009B900546C2B018B94FF0FF3042B070BD4B1E33
S31508009BA0FF2BF8D80C4E33680BB9FFF783FF002359
S31508009BB02246294601A88DF80631B5F09DF84FF0E2
S31508009BC0FF331822306801A9ADF80441C6F0AAFA95
S31508009BD00028E0D120B2E0E75838012010B50C463D
S31508009BE0C2B00146D0B1631EFF2B17D8224601A882
S31508009BF0B5F082F801230B488DF8063118220023A8
S31508009C00006801A9ADF80441C6F08CFA10B920B273
S31508009C1042B010BD044A1368013313604FF0FF3099
S31508009C20F6E700BF583801205C3801200422F0B559
S31508009C302C4B0C46074685B01A6500284FD00029DC
S31508009C404DD0FFF755FEA04219D2C6F04FFD054686
S31508009C502548264E03AB01A9006802AAA9F057FDBC
S31508009C60338802998B4207D20198C91A184489B2D7
S31508009C70FFF75CFE029B33802846C6F032FD1C4D7A
S31508009C802E89B44201D9B4F0A6FCFFF731FEA042F2
S31508009C9028BF2046AB8884B2F61AB6B2A6422B680D
S31508009CA0A98817D2324613FA81F13846B5F024F856
S31508009CB02968A21BB819B5F01FF8AB882A8914FAC7
S31508009CC083F3B3FBF2F102FB11339BB2AB8020B2F4
S31508009CD005B0F0BD2246384613FA81F1EBE74FF09E
S31508009CE0FF30F5E70010015B9009022058AF01200C
S31508009CF0FC370120002330B50B4CC3B00B4DADF833
S31508009D0004318DF80631002320681A4601A9C6F0E9
S31508009D103DFA08B143B030BDBDF80421286801A951
S31508009D204BF03EF8EFE700BF5838012090090220B3
S31508009D3008B508201CF060FE18B100234360014BEB
S31508009D40036008BDE81F0D0808B508201CF054FE7E
S31508009D5018B100234360014B036008BD04200D08B9
S31508009D60436843B9054B0B6005234B6043680133D1
S31508009D704360012070470020704700BFA01F0D08F0
S31508009D80042370B5144645688AB0ADF802302B68CE
S31508009D900A4601A805499E6874F002FC2246284630
S31508009DA00DF1020301A9B0470AB070BDA61F0D0840
S31508009DB030B54468134622688BB0156901A80A466F
S31508009DC0034974F0EDFB204601A9A8470BB030BD46
S31508009DD0B31F0D0830B58DB04468019223680A4652
S31508009DE003A80649DD6874F0DBFB042320460DEB67
S31508009DF0030203A9A8470DB030BD00BFA61F0D0872
S31508009E00F0B5A3B0064617A81F460C4615468BF0B4
S31508009E1008FB2A2217A80CA98BF016FB0DF10B03D9
S31508009E20019315234FF48072009317A800238BF033
S31508009E301EFD50BB97E80300154B8DE80300D3E9D8
S31508009E40002317A88BF0EBFDF8B9D7E90201114BEF
S31508009E508DE80300D3E9002317A88BF0E0FDA0B92D
S31508009E609DF90B1017A88BF037FD70B97668224656
S31508009E7033680949DF6803A82B4674F091FB30461E
S31508009E80BDF874300CAA03A9B84723B0F0BD00BFCB
S31508009E9050200D0848200D08B31F0D0813B50446B9
S31508009EA008460A4B1146C4E900300023C4E90333C7
S31508009EB00193036822815B6A01AA984710B9019B3E
S31508009EC0C4E90303204602B010BD00BFCC1F0D082D
S31508009ED02DE9F041D0E90332934204460D469EB07F
S31508009EE003D300201EB0BDE8F0812A2642683B490C
S31508009EF05768ADF802603A68D2F80880028910A857
S31508009F0074F04EFB38460DF1020305AA10A9C047A6
S31508009F100028E6D110A88AF00CFE324605A910A83A
S31508009F208AF04AFE4FF480720023152110A88BF0A0
S31508009F3097F90028D5D10DF1010110A88BF00FF87B
S31508009F400028CED1264BCDE90100D3E90023CDE97F
S31508009F50030010A88BF077F90028C2D101AE31466C
S31508009F6010A88BF07AF80028BBD11E4B10A8D3E9AD
S31508009F7000238BF068F90028B3D10DF10C0841468F
S31508009F8010A88BF06AF80028ABD110A88BF050F90E
S31508009F900028A6D19DF9011010A88BF0F5F8002825
S31508009FA09FD196E8060004F1140704F12506384601
S31508009FB074F01CFB98E80600304674F017FB384628
S31508009FC0B4F0A7FEC5E900703046B4F0A2FEC5E9B4
S31508009FD00260E36801200133E36083E7B31F0D08DD
S31508009FE050200D0848200D08F8B505460E460024F1
S31508009FF0094FAC4206DB1AF0FFFD08498CF07EFAE1
S3150800A0000020F8BD1AF0F8FD56F8242039468CF0E1
S3150800A01075FA0134EDE700BF02650E085A200D08EF
S3150800A020F8B505460E460024064FAC4201DB002073
S3150800A030F8BD56F824303A4602211C208CF03DFD26
S3150800A0400134F2E759490E0810B51AF0D5FD044651
S3150800A05088F05EFD0349024620468CF04FFA002040
S3150800A06010BD00BF58200D080322024902481AF005
S3150800A07063BC00BFAC200D08B44101202DE9F047B0
S3150800A08000240646E0B088464FF4BE72214601A871
S3150800A0900094B4F0EEFDA64228DD6D464FF0200987
S3150800A0A058F824A05046B4F034FE60AB2F189F42EF
S3150800A0B002461DD228465146B4F07AFD7D1C60AB97
S3150800A0C09D4204F101042CBF3D4687F80090A64244
S3150800A0D0E6D108488EF0E5FE6846BDF067FF0548FC
S3150800A0E08EF0E1FE002060B0BDE8F0872F20FAE789
S3150800A0F01920F8E798A500200122024902481AF01B
S3150800A1001BBC00BFF8200D08B44101200122024BF8
S3150800A11083F80421704700BFC838012010B50446EB
S3150800A120054B036000F5CF608DF0DFFA23690BB1AC
S3150800A130B4F051FA204610BD98D40D0870B50446FF
S3150800A1400B4B00F5387503F12C0203604C33426063
S3150800A150836000F11006B54207D055F8080C283D73
S3150800A1600028F8D027F084F9F5E7204670BD00BF2F
S3150800A170600C0E08A0F10400E0E7A0F10800DDE796
S3150800A18010B5094B04460360084B8360006948B163
S3150800A19043680BB9B4F01FFA013B436013B903686F
S3150800A1A01B6B9847204610BDF8210D08B0180E08FD
S3150800A1B010B50446034B40F80C3BFFF7E1FF204679
S3150800A1C010BD00BF1C220D080022002310B5C0E9EF
S3150800A1D00023C0E90223C0E904230D4B04460021ED
S3150800A1E0836121226030B4F044FD4FF6FF720023EC
S3150800A1F0A4F882204FF48072204684F88130A4F8AF
S3150800A2008420C4F8883074F0DBFA204610BD00BFFD
S3150800A21064E80D0800F1080373B504460D460360AB
S3150800A22011B91048B3F051FF0846B4F072FD0F2873
S3150800A23005EB0006019007D90022204601A958F02F
S3150800A24053FE019B2060A360324629462068B3F07E
S3150800A2508AFF00212046019B22686360D15402B020
S3150800A26070BD00BF04210D0810B50446044B0360F9
S3150800A270406A74F02BFAE06874F035FB204610BD8E
S3150800A280A8210D0870B5164605460C468CB0114631
S3150800A290684674F07AFA2946304674F0E8F9641B81
S3150800A2A00A4BE4105C43694606A874F06EFA224627
S3150800A2B0002106AB284674F056FB06A8B3F016FF35
S3150800A2C06846B3F013FF0CB070BD00BFABAAAAAACC
S3150800A2D02DE9F04F4FF0180B044617460E468DB081
S3150800A2E000EB0B08351BB5F5C07F22DD3F4BED10A3
S3150800A2F05D4367BB4FF01808AF1E7F10684608FB22
S3150800A300074174F042FA694606A874F03EFA2046F8
S3150800A3102A46394606AB74F026FB06A8B3F0E6FED5
S3150800A32057B96846B3F0E2FE331B182BA6F1180698
S3150800A33007DC0DB0BDE8F08F6846013FB3F0D6FEE6
S3150800A340DCE7324631462046FFF79CFFECE76D1006
S3150800A3500BFB05454046294674F000FBA6F1180993
S3150800A360C246494660B1284674F0F8FA08B129464B
S3150800A3700BE04946404674F0F1FA28B1494604E034
S3150800A380404674F0EBFA10B341462046B3F02BFF73
S3150800A39035465046214674F0E1FAD1460AF1180AC4
S3150800A3A00028F6D1A5F1180A5146204674F0D6FAC7
S3150800A3B05546AAF1180A0028F6D1A9450ED3013F39
S3150800A3C031463A464846FFF783FF4E468AE74946EE
S3150800A3D0284674F0C3FA0028C9D0CFE7294648466C
S3150800A3E0B3F001FF09F1180AD3E700BFABAAAAAA7E
S3150800A3F02DE9F043884205460E4687B005D0DFF8BA
S3150800A400608000F11804A64202D107B0BDE8F083C7
S3150800A4102946204674F0A2FA04F11807E0B121464D
S3150800A420684674F0B2F9B946641BE41008FB04F4F4
S3150800A430002C08DC2846694674F019F96846B3F01A
S3150800A44055FE3C46DFE7A9F13001A9F1180948464F
S3150800A45074F00DF9013CEBE7204674F0E8FAF0E7F2
S3150800A460ABAAAAAA2DE9F041036886B09B6A0446FE
S3150800A470984701210346394A24208CF01EFB23689D
S3150800A48021466846DB6A9847039E002430460DF14C
S3150800A4900408404505D1324B9C4206DD3148B3F0ED
S3150800A4A017FEB3F0B8FC0134F3E7182767431CB16D
S3150800A4B03846A9F0EFFE0446254646452CD1AC425F
S3150800A4C017D0294B2E1BF2105A43B2FA82F2C2F168
S3150800A4D01F02294620465200FFF7FAFEB6F5C07F4E
S3150800A4E02ADD04F5C07631462046FFF781FFB542DE
S3150800A4F01DD12646DFF87480B54222D12646B542DC
S3150800A50027D11CB139462046A9F0D4FE029874F02A
S3150800A510DDF806B0BDE8F081284606F1100174F0B2
S3150800A520F4F83046B3F077FC18350646C5E73046EA
S3150800A53074F07DFA1836DAE729462046FFF758FF01
S3150800A540D7E742460121242056F8183B8CF0B5FA85
S3150800A550D2E73046B3F0CAFD1836D0E736210D08E3
S3150800A5605555550567210D08ABAAAAAA98210D08C5
S3150800A570F8B50025474C60199035FFF725FEB5F567
S3150800A580347FF8D100254448FFF71EFE0026C4E9AB
S3150800A590D855C4E9DA55A4F87053C4F8745384F846
S3150800A5A0785384F8805384F88253A4F88453002798
S3150800A5B012243A4A3A493748B3F0CFFB394B3A4A5C
S3150800A5C01A6002F12C014C32C3E902255960103396
S3150800A5D0102218460021B4F04CFB41F2A45203465F
S3150800A5E0013CC0E90667057442824561056203F1CC
S3150800A5F02803EDD1294A2D492A48B3F0AEFB2C4849
S3150800A6001AF0E2FE254A2B492948B3F0A6FB2A4848
S3150800A61027F0D6FE214A29492748B3F09EFB284849
S3150800A620284B1E4A2849C0E9014403600473B3F065
S3150800A63094FB2648264B194A036000F10803C0E933
S3150800A6400433244900F12003234DC0E90A33047278
S3150800A650C460846180F820404462046380F8344012
S3150800A6608463B3F07AFB1D4B21462B601C4B1022EA
S3150800A67005F11800EB60C5E901442C61B4F0F9FA5C
S3150800A680184BEC616B612846BDE8F840034A164949
S3150800A690B3F063BB30360020003900209004022056
S3150800A6A01DE8070850330020600C0E083DA100087D
S3150800A6B0A02B00201DA10008981A0020B925030820
S3150800A6C0343A01208C1B0E08D9200308F8390120DA
S3150800A6D0A8210D0869A20008D03901201C220D08FE
S3150800A6E0F8210D08B0180E08B1A1000870B5036866
S3150800A6F005460C4616460BB1032070BD02210D20F7
S3150800A700074A8CF0DAF90CB92F20F6E723682046B9
S3150800A710DB6898470028F0D1C5E90046EDE700BF99
S3150800A72028220D082DE9F04F074600688BB004680B
S3150800A7300D46646C90461E46A0472D2804460ED04A
S3150800A74048B19F4A9F4B0221A52808BF13460D20F2
S3150800A7509D4A8CF0B2F920460BB0BDE8F08F6B78B5
S3150800A760202B01D10024F6E7984B3868029358B19C
S3150800A77003682A461B6C02A99847044630B102981A
S3150800A78003689B689847E6E70324F8E74FF0000A52
S3150800A7904FF0000B8E4B0393029803A90368DB68FE
S3150800A7A0984730B102210D208A4A8CF086F9A524F3
S3150800A7B010E08DF8060003980DF106010368DB68C2
S3150800A7C09847044630B99DF80630402B06D0802BB2
S3150800A7D004D0032403A874F039FCD0E76A789A42B7
S3150800A7E0DAD1012303988DF8073003680DF10701C4
S3150800A7F05B69984704460028ECD19DF80730082B7A
S3150800A80018D8002BC8D0013B072BC5D801A252F88F
S3150800A81023F000BF4DA800085FA8000899A7000804
S3150800A8206BA8000899A7000899A7000899A7000827
S3150800A83089A80008102BAFD1102E1AD0082EABD835
S3150800A8404FF48B73F340D807A6D512E006F1FF3C08
S3150800A850DCF1000343EB0C03002B9DD009E0731ECB
S3150800A860012B8CBF00230123F6E7042E01D0012E0D
S3150800A87092D1002303980493036804A95B6A984756
S3150800A880814648B14C46A5E7082E85D86FF48973EA
S3150800A8903341DC07EDD57FE7049B1BBB00230398F8
S3150800A8A00593036805A99B6B984781460028E9D15B
S3150800A8B0059B002B7FD100248CE74FF0FF31C21C8B
S3150800A8C0994274EB020243D39DF80620402A80D1B0
S3150800A8D04FEA134C05F10C0105F118048C4229D1F5
S3150800A8E009F10109049B4B457FF656AFCDE906AB46
S3150800A8F003984946036806AA9B6A984704460028AF
S3150800A9007FF468AFDDE906306FF0010C5A1E40F19E
S3150800A910FF3194456FF010028A41CED39DF8062088
S3150800A920402A7FF456AFD5E90212904208BF8B42FF
S3150800A930D6D1B3E751F8042F002ACFD0BCEB124F7B
S3150800A940CCD198B20028C9D092B29042C6D8A5E711
S3150800A95013F5803F70F1FF32FFF43BAF9DF80620F8
S3150800A960802ADEE700230398069303684946DB6BD3
S3150800A97006AA9847044600287FF42CAF069BD907F9
S3150800A98004D5D8F800200799914212D19A0705D51F
S3150800A990BDF82010B8F8042091420AD15B078AD581
S3150800A9A07868B8F80420036809999B6898470028CE
S3150800A9B081D109F10109059B4B45D3D8ECE600BFC7
S3150800A9C070220D0805AB0E0844220D081405022056
S3150800A9D01805022061220D080023F0B58BB0CDE9D9
S3150800A9E00433054600688DF80D308DF80E308DF865
S3150800A9F00F3003680DF10D01DB68984704460028FF
S3150800AA0040F0C78028680DF10E0103681B69984756
S3150800AA100446002840F0BD8028680DF10F01036840
S3150800AA205B6998470446002840F0B380286804A963
S3150800AA3003685B6A98470446002840F0AA8028689D
S3150800AA4005A903689B6B98470446002840F0A18037
S3150800AA509DF80E30002B00F09E809DF80D30402B9F
S3150800AA6007D0802B40F09E809DF80F30102B00F009
S3150800AA709B802646049BB34207D800264B4F059B6E
S3150800AA80A3423AD801200BB0F0BD286831460368C6
S3150800AA9006AA9B6A9847002879D19DF80D30402B65
S3150800AAA016D1DDE906326FF0010C591E42F1FF3767
S3150800AAB08C456FF01001B94108D24FF0FF310332CF
S3150800AAC0994270EB02020CD39BB253B10136D1E71F
S3150800AAD0802B06D1069B079A13F5803F72F1FF3249
S3150800AAE0F1E7334B0446002856D001210D20314AA0
S3150800AAF000948BF0E2FF0020C5E7286806960368F5
S3150800AB002146DB6B06AA9847002840D1069B03F02E
S3150800AB10020103F00402DB0710D411B1F2B1264B8F
S3150800AB20E0E7002AFBD0099B03EA070212F5003F7B
S3150800AB30F5D89BB2B3F5404FF1D215E009B1002A1A
S3150800AB40EDD1079B13F5302F4FEA134CE7D2BCF132
S3150800AB50000F0BD11B0410D56046E0E74FF6FF73D4
S3150800AB60BDF820209A42DAD0013488E740F2FE3C4C
S3150800AB7003F580639BB26345D1D829B14FF6FF73BD
S3150800AB80BDF820109942CAD0002ACCD1ECE70B4B6D
S3150800AB90A8E70A4BA9E70A4B01210D20094A8BF0C1
S3150800ABA08CFFA8E7084BF7E7084BF5E70000FFFF1F
S3150800ABB088220D08E0220D0898220D0877220D0834
S3150800ABC0CB220D08F6220D08B9220D08A7220D087A
S3150800ABD02DE9F0430546006887B088461F468DF87C
S3150800ABE00F2020B90324204607B0BDE8F083DFF81C
S3150800ABF06490AB68CDF81490EBB9002628683946FE
S3150800AC0003680DF10F02DB6B9847044678B91EB14D
S3150800AC1033684B4508BF002602234146CDE9006349
S3150800AC2028463B469DF80F2074F04BFA002405A8E9
S3150800AC3074F00CFAD7E79DF80F3039468DF81330C3
S3150800AC40036805AA5C6B0DF11303A0470028D4D14D
S3150800AC5005AED3E718050220034B1868034B0028F6
S3150800AC6008BF1846704700BF483A01204C3A0120F1
S3150800AC7010B5044602210D20024A8BF01EFF024B36
S3150800AC801C6010BD08230D08483A012010B5094C70
S3150800AC90094922460948B3F060F822460849094896
S3150800ACA0B3F05BF82246BDE8104007490748B3F001
S3150800ACB054B800BF900402201BF007084C3A012044
S3150800ACC02DF00708180502202FF0070814050220A2
S3150800ACD00023F7B5CDE900334AB96E4601AB152412
S3150800ACE00E4A013C06D11423036003B0F0BD6B463F
S3150800ACF001AEF4E71578002DF5D055788D4206D1CA
S3150800AD0007683568AF4207D0019D01350195009D5A
S3150800AD10403201350095E4E71B68E5E7F83900207D
S3150800AD2007B5019021B10122097801A8FFF7D0FFE4
S3150800AD30019813280AD8064B820103EB80109B5C06
S3150800AD40002B08BF002003B05DF804FB0020FAE7DB
S3150800AD50F83900200023152010B51360074B013879
S3150800AD6001D1002010BD1C78002CFAD05C78403345
S3150800AD708C4202BF146801341460F0E7F8390020E9
S3150800AD8000231A4610B50648B3F5A06F0A6001D12C
S3150800AD90002010BD4033C45C002CF9D00132F3E723
S3150800ADA0B83900200868114B70B598420E4615460A
S3150800ADB003D303F10C02904214D31B79A3B90B4CAD
S3150800ADC003689B6898470123002D3460237108BFE8
S3150800ADD000234FF00000637118BF2B78A06018BFDE
S3150800ADE0A37170BD0446EBE71920FAE75C3A012027
S3150800ADF002210D20014A8BF060BE00BF8C230D088E
S3150800AE0038B502210D20074A8BF057FE0024064D5F
S3150800AE1060194034B4F5A86F01D1002038BD74F02C
S3150800AE20F4F9F5E7B4230D08F839002038B50B4BCB
S3150800AE300C46984202D30C33984201D3B3F0CBFBAD
S3150800AE4085680FCD0FC40FCD0FC40FCD0FC495E87D
S3150800AE500F0084E80F00002038BD00BF200502203F
S3150800AE602DE9F041144C1F460E461523A046013B1A
S3150800AE7001D119201EE0217871B14034F7E76378D3
S3150800AE803B70B6B1A4EB0804A41134602A463046D8
S3150800AE903978FFF71DFF0CE021461068FFF7C6FF5B
S3150800AEA0054630B9002FEAD11EB1A4EB0804A41157
S3150800AEB034602846BDE8F081F8390020064B9842F0
S3150800AEC003D303F10C02904204D39B680248002B7B
S3150800AED018BF0020704700BF2005022010B508687B
S3150800AEE0FFF7ECFF80B18268084B0AB19A4206D296
S3150800AEF01B784BB9054A74F0CFF9002010BD03F151
S3150800AF004004A242F4D2F6E71920F7E7B839002040
S3150800AF1038B5114A83684BB9104B836084689442EC
S3150800AF2001D0237833B982600A2038BD9342F5D21E
S3150800AF304033F2E743791BB1657883799D42E9D1BD
S3150800AF400868FFF7BBFF20B1224674F0A5F9002078
S3150800AF50EBE71920E9E700BFF83E0020F8390020A2
S3150800AF60F0B50E4F84680646BC4205D307F1400388
S3150800AF709C4201D20020F0BD3B7863B9074D0FCC47
S3150800AF800FC50FCC0FC50FCC0FC594E80F0085E889
S3150800AF900F00B760EEE71920EDE700BFB8390020CB
S3150800AFA02DE9F0410E4611463046FFF7B9FE044634
S3150800AFB0002842D0224FBB68984202D13846FFF794
S3150800AFC0CFFFDFF88C80444516D204F1400CC44507
S3150800AFD00FD294F8403063B165460FCD0FC40FCD3C
S3150800AFE00FC40FCD0FC495E80F0084E80F00644620
S3150800AFF0E9E7204674F009F9124CBB6804EB86169B
S3150800B0009E4212D003D2434501D2403BBB600E4A52
S3150800B01093689E4206D8434504D2A3420CBF002338
S3150800B020403B93600020BDE8F0817D68286803688E
S3150800B0309B689847054B2B60E9E70A20F3E700BFB2
S3150800B04020050220F83900205C3A01201805022064
S3150800B050F83E00208268054B00219A4203D340330C
S3150800B0609A4238BF11708160704700BFB839002016
S3150800B07010B5094CD4E8AF3FDB070BD4204694F053
S3150800B08081FF38B1054A06490648B2F066FE2046F1
S3150800B09094F07DFF034810BD583A01209004022021
S3150800B0A0E1F207081C05022010B5084C084922469B
S3150800B0B00020B2F052FE0020064B074A18711A60AB
S3150800B0C006492246BDE81040B2F047BE9004022069
S3150800B0D0E7F207085C3A012038240D088DF30708C3
S3150800B0E070B5104ED6E8AF4F14F0010418D13046AB
S3150800B0F094F048FFA0B10C4D0C4A2B4607CA43F8FA
S3150800B100044B83E807004FF6FF722A824FF0FF329E
S3150800B1101846C5E9052474F08EFA304694F037FFD0
S3150800B120014870BD683A01206C3A0120CC240D080C
S3150800B13038B5054604300C4674F07DFA2A6813467D
S3150800B1401BB9E26001202C600DE09868A16888426E
S3150800B1500ED1197909B1217931B923200121054A7E
S3150800B1608BF0ABFC002038BDD888E1888842F4D043
S3150800B170DB68E5E798240D082DE9FF410A9F884614
S3150800B18016461D468BF0BCFC044600283FD0D6E97F
S3150800B19000010026231DD8F80020C4E90133C4E9BC
S3150800B1A006011D4B267323602661226204F1280CD2
S3150800B1B095E80F008CE80F002B7C04F1480084F812
S3150800B1C038306B8A63876B69E363D5E90623C4E97C
S3150800B1D01023124B04F1580519680B689B689847A9
S3150800B1E000220023C4E9142301AB97E8070083E88B
S3150800B1F00700012385E80700A4F87430084B84F893
S3150800B200646084F8686084F86C60A66723602046EA
S3150800B21004B0BDE8F08100BF28250D08FC06022011
S3150800B22070250D08094A08B5026002690AB1B3F02B
S3150800B230D2F9074A011D026082688A42F7D141683D
S3150800B2400029F4D04A604368136008BD28250D0814
S3150800B250E0240D0810B50446024B0360FFF7E2FF31
S3150800B260204610BD70250D08F7B50C46114B05464E
S3150800B270196868460B689B689847D4E91421009BAF
S3150800B28020469F1A019B63EB010674F0B3FD038900
S3150800B29020469F4276F1000309D274F0ABFD0430D4
S3150800B2A0036828462B6000236B6003B0F0BD74F07A
S3150800B2B0A1FDF5E7FC0602202DE9F04307460E46F8
S3150800B2C0154698466FF001096FF010048BB087F0A9
S3150800B2D0EEFB421E41F1FF33914574EB0303F6D3AF
S3150800B2E000231836CDE90401029330462B46CDF8E3
S3150800B2F0008004AA02A9FFF73FFF044650BB4FF09F
S3150800B300FF324FF0FF33CDE9062306AB03900893CF
S3150800B310304603AB1C4A08A909938BF059FC039CD9
S3150800B3202CB900233B7038460BB0BDE8F083236880
S3150800B33020461B689847214630468BF027FC2B464B
S3150800B3403046CDF8008004AA02A9FFF715FF044687
S3150800B3500028E6D095E80F0004F1280686E80F00D5
S3150800B3602B7C204684F838306B8A63876B69E363E5
S3150800B370D5E90623C4E9102301233B7023687C60C2
S3150800B380DB689847CFE700BF5BFD0708084B10B599
S3150800B3900360183343600446083074F09FFD014685
S3150800B3A020B9606900F5CF608CF0B5F9204610BD6C
S3150800B3B0B8250D08A0F10400E8E700BF10B504465B
S3150800B3C00221074A0D208BF078FBFFF745FC04F1B4
S3150800B3D0140173F051FE2046BDE810407FF0F5BD1C
S3150800B3E0DC250D0800B5084B89B0049304230593A2
S3150800B3F00023039204490422009303A87FF09FFDCB
S3150800B40009B05DF804FB00BFCC260D0838B50C461C
S3150800B410054602210D20084A8BF04FFB2146284697
S3150800B4207FF0E5FD044628B9FFF716FC05F114017F
S3150800B43073F014FE204638BDFB250D0800B50D4BEC
S3150800B4408DB0CDE90631ADF8202000231F22CDE9C5
S3150800B4500923012391F83C208DF82C308DF82D20F6
S3150800B4600093024606AB08A902A807F0F1FF0DB043
S3150800B4705DF804FBC0260D082DE9F04F1446002799
S3150800B480B9B006461D460397FFF7E6FB2269042A6C
S3150800B49008D8042A10D8DFE812F013000F00F800C5
S3150800B4A0210128014FF6FC739A4200F023814FF6DA
S3150800B4B0FD739A4200F0208140F28652326064E0C1
S3150800B4C0904B05A90493904B16A8059374F058FE63
S3150800B4D00123284685F8443074F02FFB04460028DB
S3150800B4E04BD10BA80A9589F09CFF884874F024FE76
S3150800B4F0074648B1864FB7F8643907F50B6703F076
