:020000040800F2
:10000000081000207901000895400008F727000833
:10001000954000089540000895400008954000086C
:1000200095400008954000089C4300089540000852
:10003000954000084C430008954000089540000892
:10004000954000089540000895400008954000083C
:10005000954000089540000895400008954000082C
:10006000954000089540000895400008954000081C
:10007000954000089540000895400008954000080C
:1000800095400008954000089540000895400008FC
:1000900095400008954000089540000895400008EC
:1000A00095400008954000089540000895400008DC
:1000B00095400008954000089540000895400008CC
:1000C00095400008954000089540000895400008BC
:1000D00095400008954000089540000895400008AC
:1000E000954000089540000895400008954000089C
:1000F000954000089540000895400008954000088C
:10010000954000089540000895400008954000087B
:10011000954000089540000895400008954000086B
:10012000954000089540000895400008954000085B
:10013000954000089540000895400008954000084B
:10014000954000089540000895400008954000083B
:10015000954000089540000895400008954000082B
:10016000954000089540000895400008954000081B
:10017000013800D0FCE7704708B50D4B83F30A88BF
:100180000C4B09A1D1E90001C3E9000101F0FCFF1A
:1001900001F0ECFF00F04CFA01F0C2FF01F0D4FFD7
:1001A00000F0E6F9AFF30080A5EDF5FEA5EDF5FE54
:1001B00008000020081000200348044B834202D0AE
:1001C000034B03B118477047DC5D0020DC5D002065
:1001D00000000000064B0749C91A891048BF0131C9
:1001E000491003D0044B0BB101481847704700BFBA
:1001F000DC5D0020DC5D00200000000010B5064C36
:10020000237843B9FFF7D8FF044B13B10448AFF389
:1002100000800123237010BDC85D00200000000095
:100220005846000808B5054B1BB105490548AFF312
:100230000080BDE80840FFF7CDBF00BF0000000010
:100240001010002058460008B0F5BB1F70B50E46D0
:10025000144619D2C0F5BB1300F10065934205F5B1
:10026000004511D348B94FF000639B6A074A5969AA
:10027000914202D9186900F0A1FA22463146284677
:10028000BDE8704002F04CBA70BD00BF00800008AD
:100290007FB56FF0006200F178419142034619D2B8
:1002A0006D460D4A02F110062C461068516808325E
:1002B00003C4B2422546F7D15A1E04A90F3311F8E0
:1002C000014D12F8010F844204D19A42F7D1012066
:1002D00004B070BD0020FBE738430008F0B50368A8
:1002E000044603F16043B3F5802F9FB031D84FF03F
:1002F0000067BB6A42681E6996422AD82E4B9A4212
:1003000027D8456B06F14002AA4252D89D4250D8E8
:100310002846FFF7BDFF00284BD0284602F033FAED
:1003200080B16B6973B1022B0ED1AB69C4F10401CA
:1003300019444FF0FF32204601F004FB1F4BC31A53
:10034000584258411FB0F0BD7F6B3846FFF7A0FF01
:1003500008B90020F6E7A6F150039F42F9D82846D5
:1003600003A902F017FA0028F3D0039DAE42F0D89B
:10037000AC42EED8104B9D42EBD804A801F0A6FB8E
:1003800021462A1B04A803F036FC04A803F035FC20
:1003900001F0ACFB044601F0C7FB23460090294660
:1003A00005F1200204A801F011FBB0FA80F0400929
:1003B000C8E70120C6E700BF00001808E320BBDE45
:1003C00070B54FF0FF3292B005460C4601F0BAFA14
:1003D0001C4B984232D14FF480621B4B00219A662D
:1003E00001A8202203F0DBFE184B29466846043C96
:1003F000009303F05DFF2146684603F059FF68460D
:1004000003F05FFF03F014FF0646B8B940F2022084
:1004100000F080F9202231460AA803F0C0FE0C4B00
:10042000294609A8099303F043FF09A8214603F0D0
:100430003FFF09A803F045FF03F0FAFE002012B0C9
:1004400070BD00BFE320BBDE00900040010005430B
:10045000010006434FF4806230B50446154B93B05B
:100460009A660021202201A803F099FE124B214632
:100470006846009303F01CFF684603F022FF03F078
:10048000D7FE054698B940F2022000F043F9202239
:1004900029460AA803F083FE084B09A821460993C0
:1004A00003F006FF09A803F00CFF03F0C1FE0020D3
:1004B00013B030BD00900040000002430000034331
:1004C0004FF4806210B50F4B8CB004469A66002141
:1004D000202204A803F063FE0B4B00940393012336
:1004E00001930A4B694603A8029303F007FF03A890
:1004F00003F0E7FE03F09CFEB0FA80F040090CB078
:1005000010BD00BF00900040000008430400002020
:10051000004870470080000837B50C460546E0B13A
:10052000D9B100230B60114B036003F035FD01309E
:1005300018BF2B6801A81CBF43F4C0432B604FF0C9
:10054000FF33019303F02BFD019B43B92B68034359
:100550002B60236843F40023236003B030BD012BDC
:1005600002BF236803432360F3E700BF0C120008B7
:1005700013B501A801F034FF9DF80530012B14D10B
:100580009DF804308BB94FF48012264B2649586EE3
:1005900003F580535A664B6BC00223F0E05343F0DF
:1005A00040634B635CBF214B5A664FF04023D3F846
:1005B0008420110606D44FF400621A67D3F8842011
:1005C000D206FBD402F009F900F096F808B900F061
:1005D0007BF803F04FFB044658B900F08DF808B1E2
:1005E00000F082F840F2012000F0BEF84FF40170F4
:1005F00013E000F081F808B900F06EF800F096F80A
:10060000012802D900F060F8FEE700F09BF840F204
:1006100005439C42EAD140F2032000F0A5F80020F7
:1006200002B010BD008000400040004A00A0004021
:10063000012307B58DF806308DF807304FF04023C1
:10064000D3F894305A060FD500F0A2F8A0F2022099
:1006500080B2072808D8C923C340DB0742BF002364
:100660008DF806308DF80730154B5B68013308D1E3
:100670004FF4027000F04EF800238DF806308DF82C
:1006800007309DF807305BB10D48FFF727FE8DF866
:1006900006009DF806301BB94FF4027000F03AF8DE
:1006A0009DF806304BB100F027F808B100F01CF8B7
:1006B0000348044B986002F094F803B05DF804FB23
:1006C0000060000800ED00E04CF23C32014B5A8023
:1006D000704700BF000000204AF6C032014B5A802C
:1006E000704700BF000000204FF20F02014B5A80FC
:1006F000704700BF000000204AF6C030044B5B8802
:1007000023F00F039BB21B1A58425841704700BF99
:1007100000000020044A08B51080FFF7EDFF10B973
:100720004FF20F03538008BD0000002008B5FFF70B
:10073000E3FF18B1024B588800F00F0008BD00BF5E
:100740000000002008B5FFF7D7FF48B1054A5388DD
:1007500003F00F010F2914BF013323F00F0353805F
:1007600008BD00BF0000002008B5FFF7D3FFBFF3AE
:100770004F8F0549054BCA6802F4E0621343CB6012
:10078000BFF34F8F00BFFDE700ED00E00400FA0566
:100790004FF20F01084B5A888A4201D118887047DE
:1007A0003AB91B8840F20220012B18BF4FF40070A9
:1007B00070474FF400707047000000204FF4803203
:1007C00008B5044B9A6601F071FDB0FA80F040095B
:1007D00008BD00BF00900040072BF8B506460F4645
:1007E00014461D4601D90020F8BD0121202001F04A
:1007F000D9FC0121212001F0D5FC8CB144EA06038B
:100800009B07F0D14FF48032064B31469A6628465A
:1008100023463A4601F072FDB0FA80F04009E3E762
:100820000120E1E70090004010B5044600F0D8F840
:10083000074BB0FBF3F304FB03F0022806D9BDE835
:1008400010400323B0FBF3F0FFF792BC10BD00BFD4
:1008500040420F004FF08062024B5A664FF4007224
:100860005A6670470090004010B5FFF7F3FF012172
:1008700000230422022001F0AFFC022200231146D3
:10088000104601F0A9FC002304220321022001F0FC
:10089000A3FC042201231146022001F09DFC012249
:1008A000174C04F580535A6040F6AA636361002335
:1008B000144A2361E36404F500539A6440F201434F
:1008C000A36041F20503E36000F08AF80E4B0138A3
:1008D000B0FBF3F010230002E0610C4A63610C4BA3
:1008E000C3F838274FF00212C3F8302702F58032E0
:1008F000C3F834271C22C3F820270523636110BDE9
:1009000000C00540FFFF01000050C30002000100CD
:1009100000C0034008B50146FFF79CFFBDE8084052
:10092000014803F0DABB00BF00C0054038B50546FA
:100930000D4CC0F307412046FFF78CFF03F0D7FBB7
:100940002046C5F3072103F0D2FBE9B2204603F0AD
:10095000CEFB204603F0BBFB204603F0B8FB20464D
:10096000BDE8384003F0B3BB00C0054008B5FFF751
:1009700071FFBDE80840FF21014803F0AEBB00BF96
:1009800000C0054038B50B4DFF212846FFF762FF38
:1009900003F0ADFBFF21284603F0A9FB284603F036
:1009A00096FB0402284603F092FBA4B2204380B2D7
:1009B00038BD00BF00C0054008B5FFF74BFF10224F
:1009C000014BC3F8A02008BD00E0034008B5FFF7C5
:1009D00041FF1022014BC3F8A02008BD00D0034006
:1009E00030B51C4B87B001AA03F1100514461868F6
:1009F0005968083303C4AB422246F7D11B782370F1
:100A0000154B1B6F03F00703032B1FD04FF48022FD
:100A1000124B5A66124A9368C3F30443102B17D83B
:100A200018336B440F4913F8143C4B430E498B4267
:100A300003D19268C2F30162D340074A106FC0F33A
:100A400003300130B3FBF0F007B030BD074BF4E7E3
:100A5000074BF2E7E44300080080004000900040AC
:100A60000000014040420F0000093D0000F0490233
:100A7000C0EA21012DE9F04FDFF80C910646D9F8C4
:100A8000044088468442924691B072D2D9F80C3024
:100A90001F6E4FF000632744041B944228BF144686
:100AA0009B6A3D1A03A8D3F810B001F063FAD9F895
:100AB0000C30D3F88C20304B9A42224654D19DF80A
:100AC0001430002B50D14146284603F0EEF9331B79
:100AD00000930BF104012B198B421AD30BF11C0B61
:100AE000AB4516D98D422A4638BF0A46F01BC1F1E4
:100AF00068011044114401939B4594BFC2EB0B0263
:100B0000C2EB0302D9F80C304044194403F04FFB08
:100B1000019B1A4A934216D919498D4213D20132C8
:100B2000AA4238BF2A46174DF01BD9F80C60104472
:100B3000154440448B4294BFC2EB0302C2EB010256
:100B4000711903F034FB009E544509D2D9F8041002
:100B5000AAEB0402891B494408EB040003F027FBBD
:100B6000002011B0BDE8F08F2946404603F01FFB7E
:100B7000ADE70024E8E700BFF80B0BF8038000089E
:100B8000088000087C80FFF7281000202DE9F04342
:100B9000284C074665680E4689B07DB1C5F104084A
:100BA000884528BF884601464246601903F0FFFA8F
:100BB00062684244042A626026D04546A6EB0508D6
:100BC00038F003081CD020220021684603F0E7FA21
:100BD000B8F1200FC14628BF4FF0200979194A46C5
:100BE000684603F0E4FA4A4669462369E06800F083
:100BF00083FA4D44A8EB090878B9B8F1000FE7D1A2
:100C0000B5420DD3002008E023692146E06800F0DA
:100C100073FA002363600028CFD009B0BDE8F083E9
:100C20000023761B324603487919236003F0BFFA8C
:100C30006660E7E728100020084B10B52422044620
:100C40000021184603F0ABFA0122C4600272044985
:100C50001430BDE8104001F045BE00BF2810002050
:100C6000750A000870B404465868A8B10B4D287A7C
:100C700050B10B48D4F88C6086424FF0000001BFA1
:100C800028720868206604202B61121A0144054B63
:100C9000054870BC01F034BE70BC704728100020BD
:100CA000FD0505FD8D0B00083C100020436D3BB990
:100CB000D0F88C00034B984214BF04200C207047DE
:100CC00001207047F80B0BF84B6810B50BB90020EA
:100CD00010BD0B4C606868B1C0F10402FF212044D4
:100CE00003F05DFA236904222146E06800F004FA6B
:100CF00000236360A37F1E2BE9D041F20230E7E7B7
:100D0000281000200A4B186830B9B1F5205F0DD8C3
:100D1000012208481A607047012806D1B1F5005F2A
:100D200003D8022204481A6070470020704700BFB1
:100D30004C100020C8350020C815002031B1044AED
:100D40001368002BC4BF03F1FF331360704700BF6B
:100D50004C10002002232DE9F04F8846164600274C
:100D60008BB0DFF8C490DFF8C4A005908DF81F3079
:100D70009DF81F20022A07D0002E48D041F20231F0
:100D8000012A18BF0F4642E0D9F80010234DC1F5E3
:100D900040730893DAF80030214809930DF11F03DE
:100DA00002930023019309AB009308AA1D4B294429
:100DB00002F0C4FD9DF81F3038BB63B3089BD9F81F
:100DC000004029461C4424F0030B43465A4605982C
:100DD00000F092F914F00304074605D02246284695
:100DE00005EB0B0103F0C1F9DAF800200999C9F805
:100DF00000408A42A2EB010404D90A482246014479
:100E000003F0B3F9CAF80040B2E741F203373846BD
:100E10000BB0BDE8F08F41F20237F8E7C4100020B4
:100E200050100020C8130020C0100020C413002060
:100E300008B570220021064803F0B1F90122002014
:100E4000044B1A70044B1860044B186008BD00BFB7
:100E500050100020C95D0020C0100020C4130020E5
:100E60002DE9F84399465B6806468846144643B325
:100E70001E4B1D78A5B100221A7051F8043B0522C3
:100E800003661B4B1B4800F077F860BB194802F063
:100E900042FCD6F88C50184B9D4214BF11251925E1
:100EA000164F641B3B68C3F50073A3420CD33E6826
:100EB00013482246304408EB0501264403F077F935
:100EC0003E600020BDE8F883002249463046FFF727
:100ED00041FF0028F6D13B68C3F50073A342E6D278
:100EE00041F20430EEE741F20530EBE7C95D002046
:100EF000CC5D002050100020F80C0CF8C41300202A
:100F0000C8130020436D3BB9D0F88C00034B9842C6
:100F100014BF11201920704701207047F80C0CF8FD
:100F20004B6870B505460C46E3B10122FFF712FF8E
:100F3000C8B90D4B186888B10C4E0428C0F10402E2
:100F40004FF0FF0188BF0022304403F028F9234608
:100F500004223146284600F0CFF820B9044905485C
:100F600002F068FD002070BDC0100020C4100020F9
:100F7000CC5D0020501000202DE9FF41E8460446DA
:100F800040461E4602F062FD054660BB32464146C1
:100F9000204602F02EFD054628BB039AB2F1804F91
:100FA00025D240F6FF731649B2F5800F28BF0B46D5
:100FB0009F1827EA03076169974238BF174611B1A6
:100FC000A36ABB4215D03046736898470023394660
:100FD0006361304633689847606150B931462046B6
:100FE00002F0FEFC0225284604B0BDE8F081054B66
:100FF000DEE798E80F00A76284E80F00F3E700BF80
:10100000FFFF0F00FFFF3F000068064B984207D02C
:1010100003F5003303F50073C31A58425841704773
:1010200001207047FD0505FD094B98420BD003F5E3
:10103000003303F50073984207D1012314220548B9
:1010400002FB030070470023F8E70020704700BF51
:10105000FD0505FDF843000830B5024600230C25C8
:10106000054905FB03F460180C59944203D0013381
:101070000E2BF6D1002030BD20440008F0B500232F
:10108000082787B0CDE9013315463B46009704AAEF
:10109000044602F01EFD41F203039842064623D1A6
:1010A00094F8433053B13A46E06C04A902F0A3FD32
:1010B00004AA3B461146A06C02F08CFD059A049BE5
:1010C0006A6094F843202B6052B9094A934207D0D2
:1010D000084A934204D00822E06C04A902F08BFD78
:1010E0006B68236500236365304607B0F0BD00BF21
:1010F000F70A0AF7FC0404FC2DE9F04799465B68FF
:1011000004460F469046002B3FD08B0740D14FF04E
:1011100000639B6A006E1B6981181D1DA9421BD3C9
:101120001C33984218D2A842024638BF2A46994238
:1011300094BFC2EB010AC2EB030A101A3E18C5F1B4
:101140006800104431465246204403F030F85246BD
:10115000FF21304603F023F8226E0F4B9A420BD842
:101160000E4902EB0800884206D39B1AFA58C4F8CD
:1011700080204FF0FF32FA50D9E900354246394617
:10118000206EA847236E434423660020BDE8F08705
:1011900041F20200FAE700BF04800008088000085E
:1011A0002DE9F04100254FF0FF37044688461646EA
:1011B00003F0200380F842301822FF21C0E91855BF
:1011C000A0F8405080F84350A0F8445080F84650B2
:1011D000C0F88870683002F0E2FF88222946C4E92E
:1011E0001286C4F88070C4F8847004F1900002F094
:1011F000D6FF074BC4F82071C4E9463584F8245162
:1012000016B1304600F062FC0020BDE8F08100BF5E
:10121000000101012DE9F04F9DB0CDE909230593AF
:10122000002304460E464FF00109269D0B930B9AAE
:10123000059B9A4201D3002023E194F84630142BF9
:10124000F6D8DFE813F0B800FD00F7009100780051
:101250006D01C9017800C101780037007800C10133
:101260000803780315006301B902B9024C02760342
:101270000027636D0F2B00F2E180102320460093BE
:10128000CDE9019740230CAA09A902F022FC41F202
:101290000303984240F0A380D4F8488000F062FC39
:1012A00080230221CDE900030DAA0123404600F06E
:1012B00061FBDEE7DFF8C4A3636D072B00F23D811D
:1012C00038234FF008080DEB03022046CDE90199C1
:1012D000CDF8008009A902F0FCFB41F2030398421B
:1012E0007DD1337843F0040333700F9BB36273787E
:1012F0005B071CD50020236DCDF830A0C4F88430E6
:1013000094F84530606643F0020384F84530EF6896
:101310006FB104222B680CA9B847606E2B68424657
:10132000EF680EA94044B847636E103363660B2321
:1013300084F84630C0E74FF00108D4E914739F42A7
:101340007CD9FF1ADDE90A329B1A94F84020032F5A
:10135000134440F24581032B00F27581204609A910
:1013600002F096FB00203AE00127636D072B00F2A4
:10137000E480082320460093CDE9017740230CAA9E
:1013800009A902F0A6FB41F20303984227D1337862
:1013900043F0020333700C9B7360236D083B736250
:1013A0000D9BB3F1006F00F0EF80142384F84630FA
:1013B00041F2010013E020460CAA09A9FFF75EFEE6
:1013C00041F2030398420AD10D9B0C9A2365002336
:1013D0006365A84B9A42E8D1022384F8463041F273
:1013E00003030790079A9A423FF421AF48E008238D
:1013F00020460093CDE9019740230CAA09A902F0E9
:1014000068FB41F203039842E9D10C9B03F07F4350
:10141000B3F1407F05D0142341F2090084F846302F
:10142000DDE70D9BD90706D594F8423043F0010360
:1014300084F842300027636D072BD8D90123C8E018
:1014400020460CAA09A9FFF719FE41F203039842AE
:10145000804609D10C98FFF7FFFD0746A0B9142379
:1014600041F2080884F8463041F20303CDF81C80AD
:10147000079A9A423FF4DBAE079B0BB10023F3704F
:1014800007981DB0BDE8F08F437994F824219A4263
:1014900005D9142341F20E0884F84630E4E70168C8
:1014A000754A914205D00289D20748BF013384F8BA
:1014B000243194F84230D8070DD53A8994F8433056
:1014C000910706D53BB1142384F8463041F2010858
:1014D000CAE7002BF7D00CA8FFF796FD18B93B79A7
:1014E00084F84630C0E70C98C4F88C00FFF79CFDE8
:1014F00094F842309A06F2D50028F0D04368002BC9
:10150000EDD0204698470028E9D0DFE7226D01237F
:10151000A265002284F84330E26584F8463086E60E
:1015200000213C220DA80C91012702F038FED4E9DD
:101530001432934204D884F8467041F203004EE717
:10154000009320464023CDE901770CAA09A902F0B7
:10155000C0FA41F2030398427FF441AF0DF1300C21
:1015600006F108030DF1480E624603CA7245186081
:101570005960944603F10803F6D110681860337877
:1015800043F001033370D2E7042384F8463094F823
:10159000453043F0010384F8453000236366E4E6F8
:1015A000042320460093CDE9017740230CAA09A922
:1015B00002F08FFA41F2030398427FF410AF226DDC
:1015C0000C9B042A01D923660127636D032BE7D9FD
:1015D000092384F84630B0E70023636607239CE7BD
:1015E0009F423FF6BBAE9F4228BF1F464023204686
:1015F000CDE9018800970CAA09A902F06AFA41F224
:10160000030398427FF4EBAE94F846B0BBF1070FAA
:1016100022D0042FC7F1040A88BF4FF0000A0CAB98
:101620005246FF21D81902F0BAFDBBF1090FBA44A6
:1016300026D12B46524620460CA9FFF75DFD002817
:101640003FF47BAECBE6402F28BF40279F4228BF08
:101650001F4627F00307C9E7D5F808A0BAF1000F25
:10166000D7D02B683A46606E0CA9D047636E3B44D6
:10167000636662E6EB17A603F90707F9EB17A65EA8
:10168000BBF1040F1FD173789F077FF556AEEB684F
:10169000002B3FF452AE626E042A0BD80AEB020311
:1016A000062B07D90DAB9B1A1A68C4F884204FF09B
:1016B000FF321A60EF682B685246606E0CA9B8477B
:1016C000636E5344D4E7BBF10B0F7FF436AE7378EF
:1016D00058077FF532AEEF68002FECD12DE694F875
:1016E000427017F0200707D0D4F88C00FFF79CFC5D
:1016F000074600283FF45CAE4FF0010A41E0002BA2
:1017000058D0002F56D03B69002B53D02046984725
:10171000DDE90A329B1A94F8402013448342FFF417
:101720001DAED4E91421A2EB0108B8F1400F28BF87
:101730004FF04008984528BF984620464023CDE901
:1017400001AACDF800800CAA09A902F0C2F941F261
:10175000030398427FF443AE94F84230990610D5C3
:10176000002F3FF425AED7F808B0BBF1000F3FF4CF
:101770001FAE2B46424620460CA9D84700287FF4CE
:101780002EAED4E9142194F84230914203F02003A4
:10179000B5D3002B3FF452AE002F3FF44FAEFB68A1
:1017A000002B3FF44BAE29462046984700283FF4D3
:1017B00045AE14E60120ABE74FF000618A6A496B41
:1017C0001269503A91423FF6F3AD112B0AD194F8C9
:1017D0001831002B7FF432AE142341F2060084F856
:1017E0004630FCE594F84430002B7FF427AECDE979
:1017F00001334023204600930CAA09A902F069F99D
:1018000041F2030398427FF4EAADE06C02F0F5F98F
:1018100094F818316BB104F1B4030093E06C04F157
:10182000940314AA0CA900F0D1F878B10023F37046
:10183000D2E7D4F84C8000F059F9074600F074F96B
:101840003B46009014AA40460CA9ECE70123F37034
:1018500084F84430F2E500234FF00408CDE9013369
:1018600020464023CDF800800CAA09A902F031F9E6
:1018700041F20303984209D1D4F888202F4B9A42B1
:1018800006D0142341F2050084F846300790F7E5AE
:101890000123F37094F84530DA0707D5EF682FB1CC
:1018A000424640462B6804F18401B84794F845301D
:1018B0009B0707D5EF682FB104222B68104604F16F
:1018C0008401B847236E6BB36F685FB34FF0FF338B
:1018D00004F180080422414608A8089302F035FC70
:1018E00020B1042241462B681548B84704F1680925
:1018F0000422494608A802F028FC98B14FF0006382
:101900009B6A1422D3F8108004F16C0108F10800DE
:10191000D5E90037B847D5E900370422494608EB36
:101920000200B8470123B3700E23002084F846302C
:10193000ACE70023F37041F20700A2E5E320BBDE31
:101940000480000830B50824094B00255C6601249A
:1019500003F5FE235C6001449D601A61DC608842EF
:1019600001D1586A30BD10F8012B1A62F7E700BFA9
:10197000009000402DE9F04116464FF480621D466C
:10198000114B00F1200804469A6640460F4602F0CB
:10199000B3FBDDE90612404602F0B2FB002384F8F7
:1019A000587063643368C4F859307368C4F85D30A4
:1019B000B368C4F861302B0C6DBA84F86530A4F8B4
:1019C0006650BDE8F08100BF009000402DE9F04373
:1019D00015464FF480621C46364B9BB0DDF888906C
:1019E0000E4607469A66002861D000295FD0002D78
:1019F0005DD0002C58D0304B304AB9F1000F14BFE5
:101A0000984690462022002112A802F0C8FB2C4BD9
:101A1000414611A8119302F04BFC202111A802F0BD
:101A200047FC0122274B029403920493CDF81490B3
:101A30000692079354B1B9F1000F07D002A911A87B
:101A400002F079FB05A911A802F075FB08970127A0
:101A50001C4C08A911A809970A9402F06CFB0BA969
:101A600011A80B960C970D940E950F97109402F0F9
:101A700062FB0EA911A802F05EFB11A802F021FC86
:101A8000114B01934FF098435A6CD202FCD55B6D19
:101A900040F2046003F470230193019B002B08BF04
:101AA00000201BB0BDE8F083DFF81080AAE740F209
:101AB0000160F6E7009000401F2400801F24FC8492
:101AC0000000010620000020785634124FF4806296
:101AD00010B50446044B9A6602F092F82046BDE821
:101AE0001040002102F090B8009000404FF4806256
:101AF00000B50B4B9BB09A6600212822684602F085
:101B00004EFB4023002168460AAA00F0D1FD20F0D8
:101B100010000128034818BF00201BB05DF804FB2B
:101B2000009000404CE317084FF4806200B50B4B67
:101B30009BB09A6600212822684602F030FB4023C1
:101B4000002168460AAA00F0B3FD20F01000012829
:101B5000034818BF00201BB05DF804FB0090004054
:101B60006CE317080048704786E217082DE9F34731
:101B70001446DDE90A920D461F4600284DD14CB3AC
:101B800013683F2B2AD8516851B32549002F14BF41
:101B9000B846884603F03F061B19136022BF5368FE
:101BA00001335360FEB93F2C0ED9A3092A46009396
:101BB00041463B46002000F083F824F03F031D44DB
:101BC00004F03F0434B100262246294609EB060002
:101BD00002F0EDFA002002B0BDE8F087B846D9E780
:101BE000DFF83C80D6E7C6F1400A5445ECD32946DD
:101BF000524609EB060002F0DAFA0123264400936C
:101C00004A463B4641460020A6F1400400F058F801
:101C10003F2C5544D6D9B846C7E70248DBE700BF9A
:101C20000845000880AFFFFF2DE9F0411746146812
:101C300086B01E46E3008DF80F3063098DF80E3034
:101C4000630B8DF80D30630D8DF80C30536805462D
:101C5000DA0002EB54728DF80B2004F03F045A09AD
:101C6000372C8DF80A204FEA53324FEA53538DF840
:101C70000920884694BFC4F13802C4F17802CDE946
:101C800000178DF808300D4903460020FFF76EFF5E
:101C900008222B460020CDE900870DEB0201FFF75B
:101CA00065FF284605F1200350F8042B984246F8BA
:101CB000042BF9D1002006B0BDE8F081C84400082B
:101CC000F0B517464FF480621D46264B93B09A66D6
:101CD00024220E46044600210DEB020002F05FFABA
:101CE00001204FF000520097019002920396049059
:101CF0000592069507900892002C2FD1189C1A4B3C
:101D0000A401214609A8099302F0D2FA029B03A973
:101D10001C430294059B09A843F020030593089BEC
:101D200043F02003089302F006FA694609A802F07E
:101D300002FA06A909A802F0E1FA09A802F0C1FA1C
:101D40004FF098435A6CD202FCD55B6D13F4702FA0
:101D500014BF6FF06F00002013B0F0BD6FF0710082
:101D6000FAE700BF009000400004010310B5ADF594
:101D70000E7D4FF40D72002001A901F0C6FF40F264
:101D80000124002101A801F097FFA042F9D040F200
:101D90000323984204D040F205400DF50E7D10BD9E
:101DA0009DF8043059070ED49DF804309A071AD4D0
:101DB000DB07F0D5002204998A9800F03FF900284B
:101DC000E9D00020E9E70B9800F0F7FC0028EBD001
:101DD0008A9800F0F1F80028E6D00B48FEF73AFBAD
:101DE0000028E1D1D7E74FF00062926A0299926829
:101DF0009142DDD98A9800F0FDF80028CBD00A99ED
:101E00000148FEF7DDFAC6E70080000831B10A4B51
:101E10005A68824205D80023C1E9003340F20140EC
:101E20007047013053F8302003EBC0035B6800209B
:101E30000A604B60704700BFC845000870B40C468C
:101E400011461A460D4B5D68854210D9013003EBEF
:101E5000C0056D68A618AE420DD8A5420BD39542B9
:101E600009D353F83000204470BC02F01EB840F291
:101E7000014070BC704740F20240FAE7C8450008D4
:101E800070B50D46002186B00DF1070302931E4B7D
:101E900004461646116028461C22CDE903338DF80E
:101EA0000710059302F07BF99DF8072052B994F8CA
:101EB0007230132B06D0D4F830321BB9D4E98A31F2
:101EC000994219D32378990744BF61683160DB07D1
:101ED00009D504F1080304F1240153F8040B8B42E3
:101EE00045F8040BF9D162B9237840F20640002B83
:101EF00018BF002006B070BD204602A901F0BFFE49
:101F0000D2E70020F6E700BF793C000870B40C4629
:101F100011461A460D4B5D68854210D9013003EB1E
:101F2000C0056D68A618AE420DD8A5420BD39542E8
:101F300009D353F83000204470BC01F0D8BF40F200
:101F4000014070BC704740F20240FAE7C845000803
:101F5000074B5A68824207D9013003EBC00251682F
:101F600053F8300002F01DB840F20140704700BF46
:101F7000C845000870B5054688B0C0B14FF440327E
:101F800000236C46C0E900230A4B05F114061A78B9
:101F90005B680272C360684600F06EF80FCC0FC633
:101FA00094E80F0086E80F0005F114032B6108B0D8
:101FB00070BD00BFC845000800B5ADF5137D4FF4F6
:101FC0000D7205A901F0A1FE78B904238DF8153032
:101FD000074BCDE90100039001A905A8049301F086
:101FE000A8FE0DF5137D5DF804FB0020F9E700BFA6
:101FF000490200084FF0006300B59B6AADF5137D00
:102000009B688B4204D300200DF5137D5DF804FB23
:102010004FF40D7205A901F078FE0028F3D10223D8
:102020008DF81530044BCDE90100039001A905A8F6
:10203000049301F07EFEE7E74902000810B5ADF514
:10204000127D05AC4FF40D72214601F05EFE70B9B1
:1020500001238DF81530074B0490CDE9023001A91A
:102060002046019401F065FE0DF5127D10BD0020A3
:10207000FAE700BF6527000870B588B0064601F092
:10208000E9FE20220021684602F089F801F06CFE8A
:102090000E2820D00CD807280FD00A2818D0354693
:1020A0006C460FCC0FC594E80F0085E80F000CE0DC
:1020B0001728F4D13446094D01E03446084D0FCDC0
:1020C0000FC495E80F0084E80F00304608B070BDDB
:1020D0003446044DF3E73446034DF0E7D845000895
:1020E0003846000818460008F845000810B50446B0
:1020F00001F0B0FE54B901F037FE0138C0B2162825
:1021000096BF064B002053F8200010BD2078002811
:10211000F3D101F029FE2070EFE700BF6C45000805
:10212000064B0748DA1C121AC11E22F0030299421C
:1021300088BF0022034902F03AB800BFDC5D0020EE
:10214000CC5D002064460008064B0748DA1C121AD2
:10215000C11E22F00302994288BF0022002102F032
:102160001EB800BFCC5D0020101000200348044AB8
:102170000449121A921001F08EBF00BF70010008CE
:1021800070010008CC5D0020044B054A9A60D3F82A
:10219000882042F47002C3F88820704700ED00E008
:1021A00000000008430905D0012B0CD0022B084B7E
:1021B00018BF002300F01F0039B103F5805301223E
:1021C00082401A607047034BF4E703F50053F6E7CB
:1021D00068800040648000402DE9F04105460F46CC
:1021E0001E4690464AB101233022194C8B4002FB17
:1021F000004436B304F5825423600F21072F05EB0A
:10220000450388BFA7F108044FEA0313114895BF9F
:10221000BC00A40004330C3308FA04F2A1401844B3
:1022200001F046FFB8F1000F09D101233021084A1F
:10223000BB4001FB05223EB102F582521360BDE8AE
:10224000F08104F50154D7E702F50152F6E700BF2B
:1022500000C0034030C00340F0B5114A114C124E8B
:1022600000F00105E3695F0713D40DB9334213D1C0
:1022700003EA00078F4207D10B4A1A40002A0CBF1D
:1022800000206FF00100F0BD013AEBD16FF00200C9
:10229000F9E74FF0FF30F6E76FF00100F3E700BF1A
:1022A0008096980000000340020001004FF4803245
:1022B00038B50E4B0E4C9A66E56941F67133154000
:1022C0000122E3630B4B0021DA60022360612120CD
:1022D0002361FFF7C1FF10B92120FFF7BDFF0122E5
:1022E000054BDA600DB10023E36338BD0090004078
:1022F0000000034000100340002003402DE9F04F90
:1023000001264FF430258400DFF8C4C004F14024D6
:1023100004F58024CCF804606560302500244FF477
:102320008037DFF8B0E0DFF8B09005FB00E5EC6542
:102330002C662C67214CDFF8A4A0A76641F6713407
:102340001F4F06FA00F0D7F81C80FC631D4CE660B6
:1023500043B901211C4A18F4803FD16029D10020E3
:10236000BDE8F08F01F5005404EA0904641A9C42A8
:1023700028BF1C467961D7F81CB0A6081BF0040FD3
:1023800019D1013E360146F060566E66AA66C5F860
:102390006CA0CCF82400DEF834603042FBD00B4E49
:1023A000214470630426CCF8280022443E611B1BA4
:1023B000CEE7FB63D3E74FF0FF30D1E7009000405A
:1023C00000000340001003400020034000200440B0
:1023D000001004400000044000E0FFFF180003402C
:1023E0004FF48032064B5A6603F5E6239B69C3F32C
:1023F0008512827003F03F021B0B4270037070471E
:10240000009000402DE9F043012905460E46914613
:1024100098469DB05BD8046824F04003802B02D01E
:10242000B4F5807F56D12022002114A801F0B7FE18
:102430002B4A2C4BE408012E08BF134613932B1D87
:102440000A93012344F000540B930C94264C01AFE3
:102450000AAA07CA04AE87E80700CDF834900DAA8F
:102460000E930F9407CA86E80700CDF840801193B9
:1024700010AB129407AC93E8070084E807003946D4
:1024800013A801F058FE314613A801F054FE21466E
:1024900013A801F033FF296813A8C90801F008FF49
:1024A000102113A801F004FF01F08EFEA8B913A8B3
:1024B00001F007FF4FF098435A6CD202FCD55C6DD7
:1024C00001F08CFE04F470201DB0BDE8F0836FF0C5
:1024D0002000F9E76FF07100F6E74FF0FF30F3E707
:1024E0000001000400010104100000202DE9F04F5C
:1024F00007468B4698461646A9B082B115683B68D8
:1025000023F04002802A03D0B3F5807F40F0C980D9
:1025100000245C4505D306B1356000209EE01546D9
:10252000EDE75DB1339B329A1B5D525D013553403F
:10253000349A05F00F0513550134EAE7ABEB0409B3
:10254000B9F10F0F0CD8339B03EB0409349B1C44E7
:10255000339B03EB0B0AD14540F083805C46D8E700
:102560002022294620A801F01AFE4F4B3A681F93FB
:102570003B1D10930123D20842F0005211930DF13C
:10258000040C129210AA07CA8CE80700474ACDF83B
:102590004C800DF1100E1493159213AA07CA8EE801
:1025A0000700424ACDF858800DF11C0E179318927F
:1025B00016AA07CA8EE80700339A29F00F092244A9
:1025C00049F0005E19920DF1280A19AA1A93CDF864
:1025D0006CE007CA8AE80700349A22441C921D93D3
:1025E0001CAACDF878E00DAB07CA83E80700614666
:1025F0001FA801F0A0FD04A91FA801F09CFD5146F1
:102600001FA801F098FD0DAB19461FA801F076FE3A
:1026100007A91FA801F072FE39681FA8C90801F0B8
:1026200047FE49461FA801F043FE01F0CDFD98B9D1
:102630001FA801F046FE4FF098435A6CD202FCD519
:10264000586D4C4400F4702A01F0C8FDBAF1000F37
:102650003FF479AF504601E04FF0FF3029B0BDE8BC
:10266000F08F55B1329A19F8013B525D0135534054
:1026700004F8013B05F00F056DE74246012138469D
:10268000329BFFF7BFFE0028E8D108F1100212F8D4
:10269000013D0133DBB21370002BE3D19045F6D13D
:1026A000E0E76FF01F00D9E70303000410000020EB
:1026B0001FB5044660B35AB3402B29D1930727D1E5
:1026C000042925D8DFE801F0031A24221E004FF464
:1026D000807310490B4323600023C4E90133236254
:1026E0000123019202930C4B204601A9039301F0B0
:1026F00005FE204601F07AFD04B010BD4FF40073D2
:102700000449E7E705494FF48063E3E70149FAE745
:102710002120F1E7010008FF40000020000008FF31
:10272000C0F30C032DE9F04105460F4616460BB9E0
:10273000FEF744F805F5005424F4FF5424F01F0478
:1027400005EB0608A04507D8324639462846BDE8BD
:10275000F0410223FEF740B82046FEF72FF804F5BB
:102760000054EFE770B44FF00065AD6A03462E6980
:10277000864206D86C6913449C4202D370BCFFF7B2
:10278000CFBF70BC7047036913F0FE0F0CBF012070
:102790000020704738B504460D46FDF779FD38B185
:1027A0006369012B07D12046FFF7EDFF10B1A46943
:1027B00001202C6038BD0020FCE74FF0FF3313B53B
:1027C000044601A80193FDF77BFE20B1019BA342C3
:1027D0002CBF0020012002B010BD01F000BB01F0B1
:1027E0004BBC03461846016881F3088881F30988C9
:1027F00040688746FEE74FF40170FDF7B5BFB1F5BD
:102800000D7F10B504460FD34FF40D72002101F077
:10281000C6FC04F5DE7204F5AA7104F12C00002355
:10282000BDE81040FEF7BCBC40F2052010BD13B55A
:102830000446009101462C30FEF7ECFCC4F830024F
:1028400018B141F20703984204D1A37823B1E0788C
:1028500000F2022002B010BD40F20120FAE72DE99B
:10286000F04387B00DF1080904460E4617460021D3
:10287000102248461D46DDF8388001F090FC00210A
:102880001C22C8F80010284601F089FC32463B465D
:102890002146CDF8009004F12C00FEF7BBFC237814
:1028A0009A0744BF6268C8F80020DB0709D504F125
:1028B000080304F1240253F8041B934245F8041B57
:1028C000F9D1237840F20640002B18BF002007B052
:1028D000BDE8F0834FF40D707047002303604FF4A0
:1028E0008010704738B50D46044630B110220021E3
:1028F00001F055FC0020E56038BD41F20130FBE7F6
:102900002DE9F04304460E4690469946002589B0CD
:10291000454501D300200AE0A37A1E2B4CD009D8EC
:102920000A2B2CD0142B33D0B3B141F2023009B0B2
:10293000BDE8F083232B43D0282BF6D1725D63686A
:1029400013446360735DFF2B14D03223A372A37A08
:10295000322B0FD1002051E0725D12092260715DAF
:102960000F2A01F00F0101F104016160238103D1FD
:102970000A23A3720135CBE742B91E23F9E7725D42
:10298000236813442360735DFF2BF3D01423F0E717
:102990002368A8EB05079F4228BF1F4670193946D8
:1029A000C8472368013DDB1B23603D4493B91E23C8
:1029B000A3720028DED0BAE7735D23812323D8E712
:1029C000725D238943EA022323816368132BBCD100
:1029D0002823CEE70028BAD0A9E7202F28BF202738
:1029E0002089E368874228BF074669463A469847E8
:1029F00039466846C8476368DB1B6360676827B170
:102A00000028EAD00023A37291E7A772D1E7826C75
:102A1000F0B5531EB3F5887F18D8D0E9093CD0E94A
:102A20000B47C91A914228BF11464569866B2FB9D9
:102A3000C768A7EB040E8E4598BF07630C44521A73
:102A4000C462826419448B4201D14362F0BDB34237
:102A500034BF644600249A1B2A44125DEA540133B1
:102A6000F1E72DE9F04F95B008910D92036B416AA3
:102A70000793C36A0193079B002B40F0AA80019A39
:102A8000C3689B1A089A521A9A4240F2A2800B44D9
:102A90004FF0FF37D0E90DBA8568099307FA05F5BD
:102AA000ED430E954568C36BAF40FD430F95002580
:102AB0000293036C04690393436C0B9504930368BE
:102AC00004F668250C93119504F264654369129528
:102AD0000C9D0593C5F10805836A026A1395069358
:102AE000D0E906360E9D019FB6F1807F05EA070802
:102AF00008EB0B1C3CBF13F8015B360234F81C706A
:102B000038BF45EA0222F50A7D4395424FEA0B1E83
:102B100040F2C380C7F5006607EB561624F81C6028
:102B2000019F079E04F66C6C3E4312D03E460F9FF9
:102B300037400C9E07FA06FE00294CD1069E013E46
:102B4000059FBE5D139F3E414FF4C067764407FB6F
:102B500006CC019EBBF1060F06F10106019647D88F
:102B60000126BBF1030F94BFABEB0B0BABF1030BD7
:102B70000096009EB5F1807F38BF13F801EB4FEA55
:102B8000460638BF2D023CF8067038BF4EEA0222D6
:102B90004FEAD52E07FB0EFE964500960CEB060875
:102BA0001BD9C7F5006507EB5515AFB27546009EFA
:102BB000A8F80070FF2EDCD9059E009F77542E46A2
:102BC0000131099D8D4240F236830D9D9D4289D889
:102BD00031E3089B5CE74E1EB2E7009EA7EB571758
:102BE0000136A5EB0E05A2EB0E02BFB20096DEE7A2
:102BF000069FA1EB0A06514528BF0027BE46059F48
:102C0000BBF10A0F3E4416F80E9034BF0326062689
:102C1000ABEB060B01264FF4807800964FEA49098A
:102C2000009E09EA08070A9708EB06070A9EB5F115
:102C3000807F38BF13F801EB37440CEB470638BFF1
:102C40002D023CF8177038BF4EEA02224FEAD52E0B
:102C500007FB0EFE1096009E96454FEA460600962C
:102C60000ED9C7F5006507EB5515AFB20A9D28EAE6
:102C700005087546109E3780009EFF2ECED99BE733
:102C8000009EA7EB57170136DDF82880A5EB0E054F
:102C9000A2EB0E02BFB20096ECE7761BA7EB57172C
:102CA000B6F1807F24F81C70A2EB05020BF1C0097D
:102CB0003CBF13F8015B360234F8197038BF45EA9F
:102CC0000222F50A7D4395424FEA490C40F2058104
:102CD000C7F5006607EB561624F81960049E129F8C
:102CE0000A96039E0BF10C0B0496029ECDE902A6F8
:102CF000B5F1807F3CBF13F8016B2D02B7F800C01F
:102D000038BF46EA0222EE0A0CFB06F6964240F273
:102D1000A3814FF0000ECCF500650CEB55153D80FE
:102D200007EB081704374FF008094FF0010CB6F114
:102D3000807F38BF13F8018B4FEA4C0C38BF360246
:102D400037F80C5038BF48EA02224FEAD62805FB74
:102D500008F8904507EB0C0A40F2AE81C5F5006615
:102D600005EB5616B5B24646CC45AAF80050DED360
:102D7000AEEB090E0EEB0C05BBF10B0F009540F20C
:102D8000B382032D94BF4FEAC51E4FF49C6E4FF0E3
:102D9000010598BF0EF5587EB6F1807F4FEA4505D4
:102DA00038BF13F801CB05EB0E0838BF360234F8F4
:102DB000087038BF4CEA02224FEAD62C07FB0CFC05
:102DC000944540F28381C7F5006607EB5616B7B20B
:102DD00066463F2D24F80870DED9403D032D3FD9CB
:102DE00005F0010C0D2D4FEA55074CF0020C00F2D6
:102DF00083814FF00108013FC5F1004E0CFA07FC3A
:102E00000EF2AF2EE6444FEA4E050B95C2466546DC
:102E10000A970B9FB6F1807F4FEA480838BF13F836
:102E2000019B07EB080E38BF360234F80EC038BFDE
:102E300049EA02224FEAD6290CFB09F9914540F2F2
:102E40004E81CCF500660CEB56161FFA86FC4E46FA
:102E50000A9F24F80EC0013F4FEA4A0A0A97D8D1C8
:102E6000079F05F1010A002F40F03C82019FAF420D
:102E700040F25782BBF1130F34BF4FF0070B4FF0F6
:102E80000A0B009F099D0237B5EB010CB84600F014
:102E90004882BC4528BFBC46069FA1EB0A055145A8
:102EA00028BF00273D44019F67440197A8EB0C070A
:102EB0000B97069F7F1BBC45059F0F4400F21C82A9
:102EC000A5EB0108059D614405EB010C17F808E02E
:102ED00007F801EBBC45F9D173E6A7EB5717761B52
:102EE000521B24F81970079D019F3D4303D1012017
:102EF00015B0BDE8F08FB6F1807F38BF13F8015BE5
:102F00000CF1180938BF360234F8097038BF45EAA9
:102F10000222F50A7D43954250D9C7F5006607EBBA
:102F20005616B5F1807F24F809600EF1F00E38BF17
:102F300013F8016BC64438BF2D0234F81E7038BF39
:102F400046EA0222EE0A7E4396421FD9C7F5006583
:102F500007EB5515069F24F81E50514528BF002742
:102F6000BC46059FA1EB0A053D4415F80C50BBF18A
:102F7000060F7D54019D88BF4FF00B0B05F1010535
:102F800098BF4FF0090B013101951AE6AD1B921B5A
:102F9000029ECDF808A0B246A7EB571724F81E7082
:102FA000049EBBF1060F0A96039E8CBF4FF00B0BDD
:102FB0004FF0080BCDE903A6119F99E6761BA7EB0E
:102FC0005717B6F1807F24F80970A2EB05020CF1C7
:102FD000300E3CBF13F8015B360234F80E7038BF78
:102FE00045EA0222F50A7D43954206D9C7F50066F7
:102FF00007EB561624F80E60D2E7761BA7EB57179F
:10300000B6F1807F24F80E70A2EB05020CF1480C9B
:103010003CBF13F8015B360234F80C7038BF45EA48
:103020000222F50A7D4395420AD9C7F5006607EBEF
:10303000561624F80C60DDE9026702970396AFE7A5
:10304000A7EB571724F80C70049F521B751B029EA8
:103050000297039F0497F1E7AD1BACEB5C1CB5F145
:10306000807FA7F800C0A2EB06023CBF13F8016BFB
:103070002D02B7F802C038BF46EA0222EE0A0CFB66
:1030800006F696420BD9CCF500650CEB551507EB0F
:1030900008187D804FF0080E08F5827743E6ACEB08
:1030A0005C1C921BA7F802C04FF0100E4FF4807901
:1030B00007F50177AE1B38E6A5EB5515A6EB08061C
:1030C000A2EB0802ADB20CF1010C4DE6A7EB5717CD
:1030D000A6EB0C06A2EB0C02BFB2013579E6ACEB15
:1030E0005C1CA6EB0906A2EB09021FFA8CFC08F196
:1030F000010845EA0A05ABE6053FB6F1807F3EBF11
:1031000013F8015B360245EA02227608921BD517B6
:1031100005F1010E013F05EA06050EEB4C0C2A44B1
:10312000EBD1B6F1807F3CBF13F8017B36024FEA4A
:103130000C15B4F846C638BF47EA0222F70A0CFB62
:1031400007F7974204F2446E40F2AC80CCF500667B
:103150000CEB56161FFA86FC0226B7F1807FA4F806
:1031600046C63EF816A04FEA460C0EEB46093EBF97
:1031700013F8016B3F0246EA0222FE0A0AFB06F63A
:10318000964240F29980CAF500680AEB58181FFA77
:1031900088F8A9F80080B6F1807F3CBF13F8017B66
:1031A00036023EF81CA038BF47EA0222F70A0AFBA3
:1031B00007F797424FEA4C080EEB4C0940F2878024
:1031C000CAF5006C0AEB5C1C1FFA8CFCB7F1807F1F
:1031D000A9F800C038BF13F8016B3EF818903CBF47
:1031E0003F0246EA0222FE0A09FB06F696424FEA31
:1031F000480C87BFC9F5006809EB5818A9EB5918A6
:1032000045F008058FBF1FFA88F8921B1FFA88F84F
:10321000BE1B6F1C2EF80C807FF422AE009CABF11D
:103220000C0B04F589740B94DDE902A40294049C50
:1032300003940A9C0494B6F1807F3CBF13F8014BC1
:103240003602C0E906360B9B38BF44EA022283648B
:10325000019B0262C362029B4162C363039BC0F88D
:1032600038A00364049BC0F834B04364036B23B9F3
:10327000C368019A934298BF03630899FFF7C7FB9D
:10328000436A089A9342836C07D282690D998A42F5
:1032900003D2B3F5897FFFF4E9ABB3F5897F3CD85E
:1032A000002025E6ACEB5C1CD21B1FFA8CFCF71B44
:1032B00045F00105032650E7AAEB5A18921B1FFAA6
:1032C00088F80CF1010C45F00205BE1B61E7AAEB82
:1032D0005A1CD21B1FFA8CFC08F1010845F00405AA
:1032E000F71B73E7079FC2E5DDE902A50295049D80
:1032F00003950A9D0495C4E5B9460CEB070E059F9E
:1033000017F80580069F09F8018B0135AF4208BF09
:103310000025CE45F3D1614453E44FF489738364AF
:10332000BEE74162E3E52DE9F047D0E90753012705
:103330008468D0F82C80A740D0F834C0013F0669DB
:1033400007EA080707EB0C1EB5F1807F36F81E90E0
:103350000A4407D2914280F0DC8111F8014B2D0222
:1033600044EA0323EC0A09FB04F4A34278D2056B78
:1033700006F66C6658EA050519D0D0E900E7012584
:10338000BD40013D05EA080505FA0EF7456AD0F88B
:10339000148005B9856A013D18F80550CEF1080E74
:1033A00045FA0EF53D444FF4C06707FB0566BCF1D6
:1033B000060F20D801204000B4F1807F375A07D291
:1033C000914280F0A68111F8015B240245EA0323B3
:1033D000E50A7D43AB4229BF01302C46641B5B1BD1
:1033E000FF28E8D90120B4F1807F80F0228191424A
:1033F00028BF00201DE1876BD0F824C04569BC457B
:10340000ACEB070E2CBF0027876A05EB0E0010F807
:1034100007C001204FF480774FEA4C0C07EA0C0EEE
:103420003D187544B4F1807F36F8158007D291427B
:1034300080F06F8111F8015B240245EA0323E50A5D
:1034400008FB05F54000AB422BBF01302C46774608
:1034500027EA0E0724BF641B5B1BFF28DCD9C1E7EA
:10346000281B0CF1C00CB0F1807FA3EB04034FEAE2
:103470004C0436F81CC007D2914280F04A8111F802
:10348000015B000245EA0323C50A0CFB05F5AB42CC
:1034900080F0A08002204FF0000E06F2646CB5F1BF
:1034A000807FBCF8008007D2914280F0328111F811
:1034B000014B2D0244EA0323EC0A08FB04F4A34267
:1034C00080F0EB800CEB071C00270CF1040C4FF094
:1034D00008094FF001084FEA4808B4F1807F3CF832
:1034E00008A007D2914280F0148111F8015B2402F8
:1034F00045EA0323E50A0AFB05F5AB4229BF08F1BB
:1035000001082C46641B5B1BC845E4D3BEF1030FC6
:103510003FF669AFA7EB09074744032F88BF4FF475
:103520009C674FF001059CBFFF0107F558776D00C0
:1035300006EB050CB4F1807F3CF807E007D291421E
:1035400080F0E78011F801CB24024CEA03234FEA14
:10355000D42C0EFB0CFC634529BF01356446A4EB5B
:103560000C04A3EB0C033F2DE1D9403D032D7FF666
:103570003AAF0D2D4FEA550700F2B18005F0010C6E
:10358000013F4CF0020CC5F100450CFA07FC05F2B6
:10359000AF25654406EB45064FF0010C4FEA4C0C95
:1035A000B4F1807F36F80CE007D2914280F0B18010
:1035B00011F8015B240245EA0323E50A0EFB05F539
:1035C000AB4231BF2C46641B5B1B0CF1010C013F6D
:1035D000E4D108E7401B3444B0F1807FB4F818C050
:1035E000A3EB050307D2914280F0938011F8015BB1
:1035F000000245EA0323C50A0CFB05F5AB4222D2C3
:103600000EF1F00EB5F1807F36F81E4006D29142E1
:103610007FD211F8010B2D0240EA0323E80A604330
:10362000834208D2B0F1807F71D2914234BF03202F
:103630000020BDE8F0872D1A1B1A03204FF00C0E56
:1036400006F6682C2BE7401BB0F1807FB4F830C041
:10365000A3EB050306D291425BD211F8015B000295
:1036600045EA0323C50A0CFB05F5AB42E5D3401B35
:10367000B0F1807FB4F84840A3EB050306D2914235
:1036800047D211F8015B000245EA0323C50A6543EE
:10369000AB4224BF5B1B451BCFE72D1BB5F1807FE1
:1036A000BCF80280A3EB040306D2914231D211F898
:1036B000014B2D0244EA0323EC0A08FB04F4A34265
:1036C00005D20CEB071707F5827C0827FFE61B1BCA
:1036D00010274FF480790CF5017C2C1BF9E6053F8F
:1036E000B4F1807F06D2914213D211F8015B24021B
:1036F00045EA032364081D1BED0F013D2540013FF2
:10370000A3EB0503ECD1042706F2446644E703204B
:103710008FE700208DE700230122C0E90B33C0E9C9
:10372000123243628365026570472DE9F74F984670
:10373000002704469DF83030D8F80060C8F80070C3
:1037400000938B461546FFF762F90D9B1F70A36C23
:10375000B3F5897F09D1236A13B901230D9A137038
:10376000206A003818BF01201EE0E36C8BB1A36D06
:103770005EB3042B1BD994F85C30002B40F0D7804B
:10378000D4F85D20E36412BA22624FF0FF32A365E1
:10379000E261636A5B4555D3A36CD3B9236AF3B97D
:1037A000042300200D9A137003B0BDE8F08F5A1C5B
:1037B000A26515F8012B234483F85C20D8F800306B
:1037C000013E0133C8F80030D1E7042BD3D80323DE
:1037D000E7E7009B002B40F0A7800223E1E7009B76
:1037E000002BFAD00123226D9AB1D4E900211144B3
:1037F0004FF440728A400021206902F236728A42F8
:1038000022D80122C4E91022C4E90E2200226263F8
:103810002265A76D002F68D1132E1BD943B3324602
:1038200029462046FFF77FFDF0B93246294604F1CC
:103830005C0000F0BCFCA665D8F800303344C8F842
:103840000030C4E70023CEE74FF4806720F8117002
:103850000131D4E73246294620460193FFF763FD44
:10386000019B0028E1D00BB102285DD12A4602E07D
:10387000A6F114022A4459462046A561FFF7F1F843
:10388000002854D1A369D8F800205D1B2A44C8F849
:103890000020761B1D465AE715F809100137D1554F
:1038A00009F10109132F25D9A76504F15C0A93BB1F
:1038B000524659462046C4F818A0FFF7D2F8B0BBCC
:1038C000A369A3EB0A039F4236D3FA1A914533D377
:1038D000D8F8001009EB0302D31B19443744C8F889
:1038E00000102B44BE1AA065D4E74FF0000904F184
:1038F0005B02D7E7B145CFD104F15C0A3A465146A5
:103900002046A7650193FFF70EFD019B88B9D8F803
:1039100000304B4493E73A4651462046FFF703FDFB
:103920000028F4D00228C3D002230D9A137001207E
:103930003AE7002BBCD0F5E70B2035E72DE9F04F37
:1039400089B0DDF848809A469DF84C3004460493CF
:10395000D8F800308B460293002316461768136090
:10396000C8F80030029B149A0793D4E909318B42BE
:1039700004BF00236362656A20464B1BBB4232BF13
:103980000023049B7919CDE90032524607ABFFF7BB
:10399000CCFE079A029B61699B1A0293D8F800300B
:1039A00003901344C8F80030636A5846A3EB050936
:1039B000294492444A46059300F0F9FB059BCB4409
:1039C000ED1A33682F444B443360039B23B9B9F19C
:1039D000000F01D0002FC5D1039809B0BDE8F08FCA
:1039E00010B504464B6808462169984700232361B7
:1039F00010BD70B54FF440751646D1E9003213443E
:103A00009D400369044605F2367513B1436DAB4220
:103A10000ED031462046FFF7E3FF30463368690099
:103A200098472061B0FA80F040096565400070BD9C
:103A30000020FCE738B504460D46FFF7D1FF6B6860
:103A40002846616998470023636138BD042A01D87C
:103A500004207047D1F80130B3F5805F38BF4FF4D0
:103A60008053C3600A78E02AF2D80923B2FBF3F34B
:103A700003EBC301521AD2B202600522B3FBF2F289
:103A8000826002EB82029B1ADBB243600020704727
:103A900070B5D1E90152AA4205D290F840302B44CA
:103AA0009B1A402B10D9002012E00A6890F8404081
:103AB000D65C90F841200133224402F03F020134E9
:103AC00086548B6080F840408B689D42EDD8012081
:103AD00070BD2DE9F84390F840C017469E46D1E9E5
:103AE0000123089DD21A6244954204460E469DF871
:103AF00024909DF828800AD9FFF7CAFF002867D1D3
:103B0000142341F2020084F84630BDE8F88375457D
:103B100055D8002394F840200AB19D4235D1D6E90A
:103B20000121914201D29D4241D89D424DD1294669
:103B30003846D4F88820FDF705FFC4F88800B9F1AD
:103B4000000F04D02A463946E06C00F054F894F88F
:103B50004330B8F1000F06D08BB12B463A463946B8
:103B6000A06C00F037F894F8433043B1E36DA26DD8
:103B70002B449342E36524BF002384F84330636DF4
:103B800041F203002B446365BFE794F84120A25C37
:103B9000FA5494F841200133013202F03F0284F8D4
:103BA000412094F84020013A84F84020B2E732687E
:103BB000525CFA54B26801330132B260AFE741F2AD
:103BC0000100142384F846309FE741F20200F8E731
:103BD00000209AE71FB50C46194600F14803CDE9CD
:103BE0000142009300F1440200F158032030FEF737
:103BF0007DFC04B010BD00F00CB8014600F016B812
:103C00006822002100F0CBBA03460020C3E900007F
:103C1000704707B500F128030190009300F10803F5
:103C20000020FDF7A3FF03B05DF804FB02460B463E
:103C300000F128010830FDF7F7BF10B500244A1E37
:103C4000A1424FEA82024FF0FF0108BF224640F82E
:103C5000044B00F0A4FA204610BD036840F2045063
:103C60000133012B98BF0020704740F2025070478B
:103C700070477047FEF77AB801221A70704730B566
:103C800004460D46A3B0D0F82C1202AA8023D0F827
:103C90002402FEF7D3F880232146009502AA04F1FE
:103CA0002C00FDF7B7FAD4F82C32C4F83002803378
:103CB000C4F82C3223B030BD1FB50023CDE900334A
:103CC000CDE90213D0F83032044693B9D0E98A32F4
:103CD0009A420ED26946FFF7D2FFD4F8300270B193
:103CE00041F2070240F20123904208BF184604B097
:103CF00010BDA37833B1E07800F20220F7E740F27C
:103D00000120F4E740F20220F1E737B50C46054602
:103D100011462046FEF773FD48B969462846FEF76E
:103D200075F820B9019BC4F82452C4F8283203B0B6
:103D300030BD38B500F5DE7204460D46202300F58F
:103D4000AA712C30FDF72CFAD4F830321BB9D4E923
:103D50008A329A4203D3A07800B1E07838BD294670
:103D60002046FFF78CFFEFE738B5FCF725FE9F20D4
:103D7000FCF7D0FDFCF7FAFD0546FCF703FE044610
:103D8000FCF724FE9D2D17D0C22D03D01F2D0CD083
:103D9000002038BD42F614039C4214D042F61603AC
:103DA0009C420CBF0A200020F3E748F201439C42EA
:103DB0000CBF0E200020ECE744F213039C420CBF22
:103DC00017200020E5E70720E3E708B5FCF7F4FD3E
:103DD0000620FCF79FFDBDE80840FCF7F7BD08B5DD
:103DE000FCF742FDFFF744FF42F21070FCF71CFDA8
:103DF000FCF7E2FDAB20FCF78DFDFCF7E7FD47F299
:103E00003050FCF711FDFFF7AFFF90B10C38C0B296
:103E1000012801D9002008BDFFF7D7FFFCF7CCFD32
:103E20000120FCF777FD0020FCF774FDFCF7CEFDC8
:103E3000F0E740F20110EEE710B5FCF7BDFD0520FC
:103E4000FCF768FDFCF792FD0446FCF7BFFD04F0AB
:103E5000010010BD08B5FFF7EFFF0028FBD108BD3A
:103E600038B5054610460C46FEF740F9A04207D388
:103E7000A84205D32C4484428CBF0020012038BDC9
:103E80000020FCE738B505460C46FFF7E3FFFFF7D7
:103E90009CFFFCF791FD2846FCF73CFD2046FCF713
:103EA00045FDBDE83840FCF791BD70B514460D46A0
:103EB000002221460646FFF7D3FFA8B1FFF7CAFF4D
:103EC000FCF77AFD0320FCF725FD3046FCF72EFDBC
:103ED0002C44A54203D1FCF779FD002070BDFCF70E
:103EE00045FD05F8010BF4E740F20240F6E72DE945
:103EF000F04114460F46002221460646FFF7B0FF68
:103F0000002846D0FFF7A6FFFCF756FD0320FCF77C
:103F100001FD3046FCF70AFD25468DB9FCF756FD3C
:103F2000F3B253B326F0FF0505F580753319AB42A4
:103F300032BF2546AD1BADB25CB92046BDE8F0816D
:103F4000FCF714FDFF2805F1FF35E6D040F20340F1
:103F5000F4E7FFF77FFFFFF738FFFCF72DFD0220A6
:103F6000FCF7D8FC3046FCF7E1FC07EB0508B84548
:103F70000AD1FCF72BFD641B2E44B4F5807F254647
:103F800028BF4FF48075D7E717F8010BFCF7C2FC88
:103F9000EDE740F20240D1E74FF0FF307047FEF707
:103FA0009CBC00232DE9F34105460DF107008DF877
:103FB00007300C46FEF79AF89DF807300646A3F145
:103FC0000F02032A25D9133BDBB2022B4FF6FF73F6
:103FD00047F6FF7732BF4FF400481F464FF4803852
:103FE00040F6FF7344EA05021A423FD121462846B3
:103FF0000DF10702FFF734FFD8B30DB9A6420ED07A
:104000006619351B1CB13D4218D144451DD22544CB
:1040100028E04FF6FF774FF480383B46E2E7FFF7A2
:1040200019FFFFF7D2FEFCF7C7FCC720FCF772FCB4
:10403000FCF7CCFC002002B0BDE8F081294620202E
:10404000FFF720FFA4F58054DBE72946D820FFF7CF
:1040500019FF4544A4EB0804D7E72020FFF712FF1F
:10406000A4F58054291B002CF7D1E3E740F204406B
:10407000E1E740F20240DEE708B5FFF7EBFEFCF7B0
:104080009BFCB920FCF746FCFCF7A0FCFFF7F1FD18
:10409000002008BDFEE700239A4200D1704710B50A
:1040A00050F8234041F8234001339A42F8D110BD23
:1040B00070B5054614460E4600F0C8F82B685C4003
:1040C00034405C402C60BDE8704000F0BAB88369B1
:1040D0001B06FCD5406AC0B2704783695A06FCD5FE
:1040E000C16383699B06FCD5406AC0B2704783698F
:1040F0005B06FCD5C16370472422002100F04FB855
:1041000070B515460E4624220021044600F047F8FB
:1041100025F04003802B02D0B5F5807F08D12046E2
:10412000314640F8045BEA0800F041F8002070BD19
:104130006FF01F00FBE7436813B9416070475B688D
:104140005A68012AFBD1596070470139024410B501
:10415000904201D1002005E0037811F8014FA342FD
:1041600001D0181B10BD0130F2E7884210B501EBF9
:10417000020402D98442234607D8431EA14208D034
:1041800011F8012B03F8012FF8E7024401468A4297
:1041900000D110BD13F8014D02F8014DF7E70244BC
:1041A0000346934200D1704703F8011BF9E70A4424
:1041B000431E914200D1704710B511F8014B914256
:1041C00003F8014FF9D110BD4FF48062024B9A669B
:1041D000BFF34F8F00207047009000404FF4806283
:1041E000014B00209A66704700A0004008B5C0B19E
:1041F0004FF480620C4B9A66BFF34F8F00F061F86A
:104200004FF098435A6CD202FCD54FF48062586D3F
:10421000064B10F470209A6604D0BDE8084000F008
:1042200019B8212008BD00BF0090004000A0004048
:104230004FF098435A6CD202FCD5586D00F47020B0
:10424000704710B962B6BFF36F8F7047EFF31080FD
:1042500072B67047B0F5802F22D010D8B0F5003F6D
:1042600020D007D818B3B0F5803F08BF482018BF4A
:1042700001207047B0F5403F08BF2C20F7E7B0F5AC
:10428000302F11D007D8B0F5E02F0FD0B0F5202F88
:1042900008BF1020EBE7B0F57F0F08BF0620E6E768
:1042A0004B2070472A20704711207047212070470B
:1042B000036A042B9FBF00EB83020133D1600362CA
:1042C0007047036A052B14D84FF09842116CC9024D
:1042D000FCD504339B0013650168103B11604168F5
:1042E000116050F8081F11604FF098420344984243
:1042F00000D1704750F8041F1160F8E7836813B9C4
:10430000816070475B685A68012AFBD15960704729
:10431000000000000000000000000000000000009D
:10432000F8B500BFF8BC08BC9E467047F8B500BFA2
:10433000F8BC08BC9E467047B814B6F1E0CFF3ADA8
:10434000B7DD25C9FA79B7130000000013B779FA71
:10435000C925DDB7ADF3CFE0F1B614B80102000016
:10436000000000007446000040000000000002034E
:10437000000000000000000000000000000000003D
:10438000000000000000000000000000000000002D
:1043900000000000000000000000000007B0CD5E3B
:1043A00002000000000002037846000000600008E0
:1043B00000001808F0040100DB270008DF270008D0
:1043C000DD020008FF2700082F2800082845000804
:1043D0005F280008D5280008000000001905000823
:1043E000110500080400000700000D1013001A203A
:1043F0002630384050000000FD0505FD390C00084E
:10440000650C0008C90C0008AD0C0008FD0707FD8D
:10441000310E0008610E0008210F0008050F00088A
:10442000EB17A6030201000003000000FA0606FADB
:104430000F04000003000000F40A0AF40505000060
:1044400001000000EB17A65E0A0600000100000054
:10445000F50909F50307000001000000F60808F659
:104460000608000000000000FE0101FE0808000030
:1044700000000000FD0303FD0C0800000000000028
:10448000FD0505FD1308000000000000FD0707FD05
:104490001308000000000000F90707F910090000E8
:1044A00002000000F30B0BF3110A000003000000F0
:1044B000F70A0AF7120B000003000000FC0404FCDA
:1044C0000D0C000003000000800000000000000050
:1044D00000000000000000000000000000000000DC
:1044E00000000000000000000000000000000000CC
:1044F00000000000000000000000000000000000BC
:1045000000000000000000006A09E667BB67AE8596
:104510003C6EF372A54FF53A510E527F9B05688CA5
:104520001F83D9AB5BE0CD1900010000751F0008A7
:104530000D1E00083D1E00080D1F0008511F000839
:104540005B3C00083B3C00086B3C00080B3D00084E
:10455000B93C0008811E0008393E0008AB3E000847
:10456000EF3E0008A33F0008993F0008000010003C
:10457000000004000000100000000400000008001B
:1045800000001000000010000000200000002000CB
:104590000000400000008000000008000000100043
:1045A00000000800000004000000080000001000E7
:1045B0000000200000800000000001000000020058
:1045C00000000400000008000000000001000000DE
:1045D0000000000000001000100203009A0100001B
:1045E000000C0000001000000000080000000000A7
:1045F0000100000001000000100203009A01000009
:104600000030000000100000000008000000000062
:104610000100000000020000100203009A010000E7
:1046200000E0010000100000000040000000000059
:104630000100000000200000100203009A010000A9
:1046400000780000001000000000100000000000D2
:08465000010000000000010060
:0C46580064460008CC5D00200400000057
:10466400050D00083D0D000825020008FD010008A5
:040000050800017975
:00000001FF
